{
  "_format": "hh-sol-artifact-1",
  "contractName": "Domains",
  "sourceName": "contracts/Domains.sol",
  "abi": [
    {
      "inputs": [
        {
          "internalType": "string",
          "name": "_tld",
          "type": "string"
        }
      ],
      "stateMutability": "payable",
      "type": "constructor"
    },
    {
      "anonymous": false,
      "inputs": [
        {
          "indexed": true,
          "internalType": "address",
          "name": "owner",
          "type": "address"
        },
        {
          "indexed": true,
          "internalType": "address",
          "name": "approved",
          "type": "address"
        },
        {
          "indexed": true,
          "internalType": "uint256",
          "name": "tokenId",
          "type": "uint256"
        }
      ],
      "name": "Approval",
      "type": "event"
    },
    {
      "anonymous": false,
      "inputs": [
        {
          "indexed": true,
          "internalType": "address",
          "name": "owner",
          "type": "address"
        },
        {
          "indexed": true,
          "internalType": "address",
          "name": "operator",
          "type": "address"
        },
        {
          "indexed": false,
          "internalType": "bool",
          "name": "approved",
          "type": "bool"
        }
      ],
      "name": "ApprovalForAll",
      "type": "event"
    },
    {
      "anonymous": false,
      "inputs": [
        {
          "indexed": true,
          "internalType": "address",
          "name": "from",
          "type": "address"
        },
        {
          "indexed": true,
          "internalType": "address",
          "name": "to",
          "type": "address"
        },
        {
          "indexed": true,
          "internalType": "uint256",
          "name": "tokenId",
          "type": "uint256"
        }
      ],
      "name": "Transfer",
      "type": "event"
    },
    {
      "inputs": [
        {
          "internalType": "address",
          "name": "to",
          "type": "address"
        },
        {
          "internalType": "uint256",
          "name": "tokenId",
          "type": "uint256"
        }
      ],
      "name": "approve",
      "outputs": [],
      "stateMutability": "nonpayable",
      "type": "function"
    },
    {
      "inputs": [
        {
          "internalType": "address",
          "name": "owner",
          "type": "address"
        }
      ],
      "name": "balanceOf",
      "outputs": [
        {
          "internalType": "uint256",
          "name": "",
          "type": "uint256"
        }
      ],
      "stateMutability": "view",
      "type": "function"
    },
    {
      "inputs": [
        {
          "internalType": "string",
          "name": "",
          "type": "string"
        }
      ],
      "name": "domains",
      "outputs": [
        {
          "internalType": "address",
          "name": "registrant",
          "type": "address"
        },
        {
          "internalType": "address",
          "name": "controller",
          "type": "address"
        },
        {
          "internalType": "string",
          "name": "content",
          "type": "string"
        },
        {
          "internalType": "string",
          "name": "email",
          "type": "string"
        }
      ],
      "stateMutability": "view",
      "type": "function"
    },
    {
      "inputs": [
        {
          "internalType": "string",
          "name": "name",
          "type": "string"
        }
      ],
      "name": "getAddress",
      "outputs": [
        {
          "internalType": "address",
          "name": "",
          "type": "address"
        }
      ],
      "stateMutability": "view",
      "type": "function"
    },
    {
      "inputs": [
        {
          "internalType": "uint256",
          "name": "tokenId",
          "type": "uint256"
        }
      ],
      "name": "getApproved",
      "outputs": [
        {
          "internalType": "address",
          "name": "",
          "type": "address"
        }
      ],
      "stateMutability": "view",
      "type": "function"
    },
    {
      "inputs": [
        {
          "internalType": "string",
          "name": "name",
          "type": "string"
        }
      ],
      "name": "getContent",
      "outputs": [
        {
          "internalType": "string",
          "name": "",
          "type": "string"
        }
      ],
      "stateMutability": "view",
      "type": "function"
    },
    {
      "inputs": [
        {
          "internalType": "string",
          "name": "name",
          "type": "string"
        }
      ],
      "name": "getEmail",
      "outputs": [
        {
          "internalType": "string",
          "name": "",
          "type": "string"
        }
      ],
      "stateMutability": "view",
      "type": "function"
    },
    {
      "inputs": [
        {
          "internalType": "string",
          "name": "name",
          "type": "string"
        }
      ],
      "name": "getRecord",
      "outputs": [
        {
          "components": [
            {
              "internalType": "address",
              "name": "registrant",
              "type": "address"
            },
            {
              "internalType": "address",
              "name": "controller",
              "type": "address"
            },
            {
              "internalType": "string",
              "name": "content",
              "type": "string"
            },
            {
              "internalType": "string",
              "name": "email",
              "type": "string"
            }
          ],
          "internalType": "struct Domains.Domain",
          "name": "",
          "type": "tuple"
        }
      ],
      "stateMutability": "view",
      "type": "function"
    },
    {
      "inputs": [
        {
          "internalType": "address",
          "name": "owner",
          "type": "address"
        },
        {
          "internalType": "address",
          "name": "operator",
          "type": "address"
        }
      ],
      "name": "isApprovedForAll",
      "outputs": [
        {
          "internalType": "bool",
          "name": "",
          "type": "bool"
        }
      ],
      "stateMutability": "view",
      "type": "function"
    },
    {
      "inputs": [],
      "name": "name",
      "outputs": [
        {
          "internalType": "string",
          "name": "",
          "type": "string"
        }
      ],
      "stateMutability": "view",
      "type": "function"
    },
    {
      "inputs": [
        {
          "internalType": "uint256",
          "name": "tokenId",
          "type": "uint256"
        }
      ],
      "name": "ownerOf",
      "outputs": [
        {
          "internalType": "address",
          "name": "",
          "type": "address"
        }
      ],
      "stateMutability": "view",
      "type": "function"
    },
    {
      "inputs": [
        {
          "internalType": "string",
          "name": "name",
          "type": "string"
        }
      ],
      "name": "price",
      "outputs": [
        {
          "internalType": "uint256",
          "name": "",
          "type": "uint256"
        }
      ],
      "stateMutability": "pure",
      "type": "function"
    },
    {
      "inputs": [
        {
          "internalType": "string",
          "name": "name",
          "type": "string"
        }
      ],
      "name": "register",
      "outputs": [],
      "stateMutability": "payable",
      "type": "function"
    },
    {
      "inputs": [
        {
          "internalType": "address",
          "name": "from",
          "type": "address"
        },
        {
          "internalType": "address",
          "name": "to",
          "type": "address"
        },
        {
          "internalType": "uint256",
          "name": "tokenId",
          "type": "uint256"
        }
      ],
      "name": "safeTransferFrom",
      "outputs": [],
      "stateMutability": "nonpayable",
      "type": "function"
    },
    {
      "inputs": [
        {
          "internalType": "address",
          "name": "from",
          "type": "address"
        },
        {
          "internalType": "address",
          "name": "to",
          "type": "address"
        },
        {
          "internalType": "uint256",
          "name": "tokenId",
          "type": "uint256"
        },
        {
          "internalType": "bytes",
          "name": "_data",
          "type": "bytes"
        }
      ],
      "name": "safeTransferFrom",
      "outputs": [],
      "stateMutability": "nonpayable",
      "type": "function"
    },
    {
      "inputs": [
        {
          "internalType": "address",
          "name": "operator",
          "type": "address"
        },
        {
          "internalType": "bool",
          "name": "approved",
          "type": "bool"
        }
      ],
      "name": "setApprovalForAll",
      "outputs": [],
      "stateMutability": "nonpayable",
      "type": "function"
    },
    {
      "inputs": [
        {
          "internalType": "string",
          "name": "name",
          "type": "string"
        },
        {
          "internalType": "string",
          "name": "content",
          "type": "string"
        }
      ],
      "name": "setContent",
      "outputs": [],
      "stateMutability": "nonpayable",
      "type": "function"
    },
    {
      "inputs": [
        {
          "internalType": "string",
          "name": "name",
          "type": "string"
        },
        {
          "internalType": "string",
          "name": "email",
          "type": "string"
        }
      ],
      "name": "setEmail",
      "outputs": [],
      "stateMutability": "nonpayable",
      "type": "function"
    },
    {
      "inputs": [
        {
          "internalType": "string",
          "name": "name",
          "type": "string"
        },
        {
          "components": [
            {
              "internalType": "address",
              "name": "registrant",
              "type": "address"
            },
            {
              "internalType": "address",
              "name": "controller",
              "type": "address"
            },
            {
              "internalType": "string",
              "name": "content",
              "type": "string"
            },
            {
              "internalType": "string",
              "name": "email",
              "type": "string"
            }
          ],
          "internalType": "struct Domains.Domain",
          "name": "domain",
          "type": "tuple"
        }
      ],
      "name": "setRecord",
      "outputs": [],
      "stateMutability": "nonpayable",
      "type": "function"
    },
    {
      "inputs": [
        {
          "internalType": "bytes4",
          "name": "interfaceId",
          "type": "bytes4"
        }
      ],
      "name": "supportsInterface",
      "outputs": [
        {
          "internalType": "bool",
          "name": "",
          "type": "bool"
        }
      ],
      "stateMutability": "view",
      "type": "function"
    },
    {
      "inputs": [],
      "name": "symbol",
      "outputs": [
        {
          "internalType": "string",
          "name": "",
          "type": "string"
        }
      ],
      "stateMutability": "view",
      "type": "function"
    },
    {
      "inputs": [],
      "name": "tld",
      "outputs": [
        {
          "internalType": "string",
          "name": "",
          "type": "string"
        }
      ],
      "stateMutability": "view",
      "type": "function"
    },
    {
      "inputs": [
        {
          "internalType": "uint256",
          "name": "tokenId",
          "type": "uint256"
        }
      ],
      "name": "tokenURI",
      "outputs": [
        {
          "internalType": "string",
          "name": "",
          "type": "string"
        }
      ],
      "stateMutability": "view",
      "type": "function"
    },
    {
      "inputs": [
        {
          "internalType": "address",
          "name": "from",
          "type": "address"
        },
        {
          "internalType": "address",
          "name": "to",
          "type": "address"
        },
        {
          "internalType": "uint256",
          "name": "tokenId",
          "type": "uint256"
        }
      ],
      "name": "transferFrom",
      "outputs": [],
      "stateMutability": "nonpayable",
      "type": "function"
    }
  ],
  "bytecode": "0x6080604052604051806108a0016040528061086b81526020016200573361086b9139600990805190602001906200003892919062000287565b506040518060400160405280600d81526020017f3c2f746578743e3c2f7376673e00000000000000000000000000000000000000815250600a90805190602001906200008692919062000287565b5060405162005f9e38038062005f9e8339818101604052810190620000ac9190620004d4565b6040518060400160405280601381526020017f416476657262204e616d652053657276696365000000000000000000000000008152506040518060400160405280600381526020017f414e53000000000000000000000000000000000000000000000000000000000081525081600090805190602001906200013092919062000287565b5080600190805190602001906200014992919062000287565b50505080600890805190602001906200016492919062000287565b50620001b16040518060400160405280601881526020017f2573206e616d652073657276696365206465706c6f796564000000000000000081525082620001b860201b62001b5b1760201c565b5062000622565b6200025a8282604051602401620001d192919062000582565b6040516020818303038152906040527f4b5c4277000000000000000000000000000000000000000000000000000000007bffffffffffffffffffffffffffffffffffffffffffffffffffffffff19166020820180517bffffffffffffffffffffffffffffffffffffffffffffffffffffffff83818316178352505050506200025e60201b60201c565b5050565b60008151905060006a636f6e736f6c652e6c6f679050602083016000808483855afa5050505050565b8280546200029590620005ec565b90600052602060002090601f016020900481019282620002b9576000855562000305565b82601f10620002d457805160ff191683800117855562000305565b8280016001018555821562000305579182015b8281111562000304578251825591602001919060010190620002e7565b5b50905062000314919062000318565b5090565b5b808211156200033357600081600090555060010162000319565b5090565b6000604051905090565b600080fd5b600080fd5b600080fd5b600080fd5b6000601f19601f8301169050919050565b7f4e487b7100000000000000000000000000000000000000000000000000000000600052604160045260246000fd5b620003a08262000355565b810181811067ffffffffffffffff82111715620003c257620003c162000366565b5b80604052505050565b6000620003d762000337565b9050620003e5828262000395565b919050565b600067ffffffffffffffff82111562000408576200040762000366565b5b620004138262000355565b9050602081019050919050565b60005b838110156200044057808201518184015260208101905062000423565b8381111562000450576000848401525b50505050565b60006200046d6200046784620003ea565b620003cb565b9050828152602081018484840111156200048c576200048b62000350565b5b6200049984828562000420565b509392505050565b600082601f830112620004b957620004b86200034b565b5b8151620004cb84826020860162000456565b91505092915050565b600060208284031215620004ed57620004ec62000341565b5b600082015167ffffffffffffffff8111156200050e576200050d62000346565b5b6200051c84828501620004a1565b91505092915050565b600081519050919050565b600082825260208201905092915050565b60006200054e8262000525565b6200055a818562000530565b93506200056c81856020860162000420565b620005778162000355565b840191505092915050565b600060408201905081810360008301526200059e818562000541565b90508181036020830152620005b4818462000541565b90509392505050565b7f4e487b7100000000000000000000000000000000000000000000000000000000600052602260045260246000fd5b600060028204905060018216806200060557607f821691505b602082108114156200061c576200061b620005bd565b5b50919050565b61510180620006326000396000f3fe60806040526004361061014b5760003560e01c806393375cfa116100b6578063c87b56dd1161006f578063c87b56dd146104db578063d35bfbd814610518578063e985e9c514610541578063f2c298be1461057e578063f77e8bd71461059a578063fe2c6198146105d75761014b565b806393375cfa146103cf57806395d89b41146103f8578063a22cb46514610423578063a5e0dd941461044c578063b88d4fde14610475578063bf40fac11461049e5761014b565b8063264492351161010857806326449235146102845780632d551432146102c457806342842e0e146102ef5780636352211e1461031857806370a08231146103555780638c9e1f3c146103925761014b565b806301ffc9a71461015057806306fdde031461018d578063081812fc146101b8578063095ea7b3146101f557806311dd88451461021e57806323b872dd1461025b575b600080fd5b34801561015c57600080fd5b5061017760048036038101906101729190612ff5565b610614565b604051610184919061303d565b60405180910390f35b34801561019957600080fd5b506101a26106f6565b6040516101af91906130f1565b60405180910390f35b3480156101c457600080fd5b506101df60048036038101906101da9190613149565b610788565b6040516101ec91906131b7565b60405180910390f35b34801561020157600080fd5b5061021c600480360381019061021791906131fe565b61080d565b005b34801561022a57600080fd5b50610245600480360381019061024091906132a3565b610925565b60405161025291906133b3565b60405180910390f35b34801561026757600080fd5b50610282600480360381019061027d91906133d5565b610b30565b005b34801561029057600080fd5b506102ab60048036038101906102a69190613558565b610b90565b6040516102bb94939291906135a1565b60405180910390f35b3480156102d057600080fd5b506102d9610d26565b6040516102e691906130f1565b60405180910390f35b3480156102fb57600080fd5b50610316600480360381019061031191906133d5565b610db4565b005b34801561032457600080fd5b5061033f600480360381019061033a9190613149565b610dd4565b60405161034c91906131b7565b60405180910390f35b34801561036157600080fd5b5061037c600480360381019061037791906135f4565b610e86565b6040516103899190613630565b60405180910390f35b34801561039e57600080fd5b506103b960048036038101906103b491906132a3565b610f3e565b6040516103c691906130f1565b60405180910390f35b3480156103db57600080fd5b506103f660048036038101906103f1919061366f565b610ff4565b005b34801561040457600080fd5b5061040d6110a4565b60405161041a91906130f1565b60405180910390f35b34801561042f57600080fd5b5061044a60048036038101906104459190613717565b611136565b005b34801561045857600080fd5b50610473600480360381019061046e9190613757565b61114c565b005b34801561048157600080fd5b5061049c60048036038101906104979190613879565b611236565b005b3480156104aa57600080fd5b506104c560048036038101906104c091906132a3565b611298565b6040516104d291906131b7565b60405180910390f35b3480156104e757600080fd5b5061050260048036038101906104fd9190613149565b6112e6565b60405161050f91906130f1565b60405180910390f35b34801561052457600080fd5b5061053f600480360381019061053a9190613757565b611438565b005b34801561054d57600080fd5b50610568600480360381019061056391906138fc565b611522565b604051610575919061303d565b60405180910390f35b610598600480360381019061059391906132a3565b6115b6565b005b3480156105a657600080fd5b506105c160048036038101906105bc91906132a3565b6119ff565b6040516105ce91906130f1565b60405180910390f35b3480156105e357600080fd5b506105fe60048036038101906105f991906132a3565b611ab5565b60405161060b9190613630565b60405180910390f35b60007f80ac58cd000000000000000000000000000000000000000000000000000000007bffffffffffffffffffffffffffffffffffffffffffffffffffffffff1916827bffffffffffffffffffffffffffffffffffffffffffffffffffffffff191614806106df57507f5b5e139f000000000000000000000000000000000000000000000000000000007bffffffffffffffffffffffffffffffffffffffffffffffffffffffff1916827bffffffffffffffffffffffffffffffffffffffffffffffffffffffff1916145b806106ef57506106ee82611bf7565b5b9050919050565b6060600080546107059061396b565b80601f01602080910402602001604051908101604052809291908181526020018280546107319061396b565b801561077e5780601f106107535761010080835404028352916020019161077e565b820191906000526020600020905b81548152906001019060200180831161076157829003601f168201915b5050505050905090565b600061079382611c61565b6107d2576040517f08c379a00000000000000000000000000000000000000000000000000000000081526004016107c990613a0f565b60405180910390fd5b6004600083815260200190815260200160002060009054906101000a900473ffffffffffffffffffffffffffffffffffffffff169050919050565b600061081882610dd4565b90508073ffffffffffffffffffffffffffffffffffffffff168373ffffffffffffffffffffffffffffffffffffffff161415610889576040517f08c379a000000000000000000000000000000000000000000000000000000000815260040161088090613aa1565b60405180910390fd5b8073ffffffffffffffffffffffffffffffffffffffff166108a8611ccd565b73ffffffffffffffffffffffffffffffffffffffff1614806108d757506108d6816108d1611ccd565b611522565b5b610916576040517f08c379a000000000000000000000000000000000000000000000000000000000815260040161090d90613b33565b60405180910390fd5b6109208383611cd5565b505050565b61092d612e0c565b600b838360405161093f929190613b83565b90815260200160405180910390206040518060800160405290816000820160009054906101000a900473ffffffffffffffffffffffffffffffffffffffff1673ffffffffffffffffffffffffffffffffffffffff1673ffffffffffffffffffffffffffffffffffffffff1681526020016001820160009054906101000a900473ffffffffffffffffffffffffffffffffffffffff1673ffffffffffffffffffffffffffffffffffffffff1673ffffffffffffffffffffffffffffffffffffffff168152602001600282018054610a149061396b565b80601f0160208091040260200160405190810160405280929190818152602001828054610a409061396b565b8015610a8d5780601f10610a6257610100808354040283529160200191610a8d565b820191906000526020600020905b815481529060010190602001808311610a7057829003601f168201915b50505050508152602001600382018054610aa69061396b565b80601f0160208091040260200160405190810160405280929190818152602001828054610ad29061396b565b8015610b1f5780601f10610af457610100808354040283529160200191610b1f565b820191906000526020600020905b815481529060010190602001808311610b0257829003601f168201915b505050505081525050905092915050565b610b41610b3b611ccd565b82611d8e565b610b80576040517f08c379a0000000000000000000000000000000000000000000000000000000008152600401610b7790613c0e565b60405180910390fd5b610b8b838383611e6c565b505050565b600b818051602081018201805184825260208301602085012081835280955050505050506000915090508060000160009054906101000a900473ffffffffffffffffffffffffffffffffffffffff16908060010160009054906101000a900473ffffffffffffffffffffffffffffffffffffffff1690806002018054610c159061396b565b80601f0160208091040260200160405190810160405280929190818152602001828054610c419061396b565b8015610c8e5780601f10610c6357610100808354040283529160200191610c8e565b820191906000526020600020905b815481529060010190602001808311610c7157829003601f168201915b505050505090806003018054610ca39061396b565b80601f0160208091040260200160405190810160405280929190818152602001828054610ccf9061396b565b8015610d1c5780601f10610cf157610100808354040283529160200191610d1c565b820191906000526020600020905b815481529060010190602001808311610cff57829003601f168201915b5050505050905084565b60088054610d339061396b565b80601f0160208091040260200160405190810160405280929190818152602001828054610d5f9061396b565b8015610dac5780601f10610d8157610100808354040283529160200191610dac565b820191906000526020600020905b815481529060010190602001808311610d8f57829003601f168201915b505050505081565b610dcf83838360405180602001604052806000815250611236565b505050565b6000806002600084815260200190815260200160002060009054906101000a900473ffffffffffffffffffffffffffffffffffffffff169050600073ffffffffffffffffffffffffffffffffffffffff168173ffffffffffffffffffffffffffffffffffffffff161415610e7d576040517f08c379a0000000000000000000000000000000000000000000000000000000008152600401610e7490613ca0565b60405180910390fd5b80915050919050565b60008073ffffffffffffffffffffffffffffffffffffffff168273ffffffffffffffffffffffffffffffffffffffff161415610ef7576040517f08c379a0000000000000000000000000000000000000000000000000000000008152600401610eee90613d32565b60405180910390fd5b600360008373ffffffffffffffffffffffffffffffffffffffff1673ffffffffffffffffffffffffffffffffffffffff168152602001908152602001600020549050919050565b6060600b8383604051610f52929190613b83565b90815260200160405180910390206002018054610f6e9061396b565b80601f0160208091040260200160405190810160405280929190818152602001828054610f9a9061396b565b8015610fe75780601f10610fbc57610100808354040283529160200191610fe7565b820191906000526020600020905b815481529060010190602001808311610fca57829003601f168201915b5050505050905092915050565b3373ffffffffffffffffffffffffffffffffffffffff16600b848460405161101d929190613b83565b908152602001604051809103902060010160009054906101000a900473ffffffffffffffffffffffffffffffffffffffff1673ffffffffffffffffffffffffffffffffffffffff161461106f57600080fd5b80600b8484604051611082929190613b83565b9081526020016040518091039020818161109c91906141af565b905050505050565b6060600180546110b39061396b565b80601f01602080910402602001604051908101604052809291908181526020018280546110df9061396b565b801561112c5780601f106111015761010080835404028352916020019161112c565b820191906000526020600020905b81548152906001019060200180831161110f57829003601f168201915b5050505050905090565b611148611141611ccd565b83836120d3565b5050565b3373ffffffffffffffffffffffffffffffffffffffff16600b8585604051611175929190613b83565b908152602001604051809103902060010160009054906101000a900473ffffffffffffffffffffffffffffffffffffffff1673ffffffffffffffffffffffffffffffffffffffff16146111fd576040517f08c379a00000000000000000000000000000000000000000000000000000000081526004016111f49061422f565b60405180910390fd5b8181600b8686604051611211929190613b83565b9081526020016040518091039020600201919061122f929190612e60565b5050505050565b611247611241611ccd565b83611d8e565b611286576040517f08c379a000000000000000000000000000000000000000000000000000000000815260040161127d90613c0e565b60405180910390fd5b61129284848484612240565b50505050565b6000600b83836040516112ac929190613b83565b908152602001604051809103902060010160009054906101000a900473ffffffffffffffffffffffffffffffffffffffff16905092915050565b60606112f182611c61565b611330576040517f08c379a0000000000000000000000000000000000000000000000000000000008152600401611327906142c1565b60405180910390fd5b60006006600084815260200190815260200160002080546113509061396b565b80601f016020809104026020016040519081016040528092919081815260200182805461137c9061396b565b80156113c95780601f1061139e576101008083540402835291602001916113c9565b820191906000526020600020905b8154815290600101906020018083116113ac57829003601f168201915b5050505050905060006113da61229c565b90506000815114156113f0578192505050611433565b60008251111561142557808260405160200161140d929190614312565b60405160208183030381529060405292505050611433565b61142e846122b3565b925050505b919050565b3373ffffffffffffffffffffffffffffffffffffffff16600b8585604051611461929190613b83565b908152602001604051809103902060010160009054906101000a900473ffffffffffffffffffffffffffffffffffffffff1673ffffffffffffffffffffffffffffffffffffffff16146114e9576040517f08c379a00000000000000000000000000000000000000000000000000000000081526004016114e0906143a8565b60405180910390fd5b8181600b86866040516114fd929190613b83565b9081526020016040518091039020600301919061151b929190612e60565b5050505050565b6000600560008473ffffffffffffffffffffffffffffffffffffffff1673ffffffffffffffffffffffffffffffffffffffff16815260200190815260200160002060008373ffffffffffffffffffffffffffffffffffffffff1673ffffffffffffffffffffffffffffffffffffffff16815260200190815260200160002060009054906101000a900460ff16905092915050565b600073ffffffffffffffffffffffffffffffffffffffff16600b83836040516115e0929190613b83565b908152602001604051809103902060000160009054906101000a900473ffffffffffffffffffffffffffffffffffffffff1673ffffffffffffffffffffffffffffffffffffffff161461163257600080fd5b600061163e8383611ab5565b905080341015611683576040517f08c379a000000000000000000000000000000000000000000000000000000000815260040161167a90614414565b60405180910390fd5b60008383600860405160200161169b939291906144ff565b60405160208183030381529060405290506000600982600a6040516020016116c593929190614530565b604051602081830303815290604052905060006116e2600761235a565b9050600061173387878080601f016020809104026020016040519081016040528093929190818152602001838380828437600081840152601f19601f82011690508083019250505050505050612368565b905060006117408261251d565b90506118346040518060600160405280603181526020016150226031913989898080601f016020809104026020016040519081016040528093929190818152602001838380828437600081840152601f19601f82011690508083019250505050505050600880546117b09061396b565b80601f01602080910402602001604051908101604052809291908181526020018280546117dc9061396b565b80156118295780601f106117fe57610100808354040283529160200191611829565b820191906000526020600020905b81548152906001019060200180831161180c57829003601f168201915b50505050508661267e565b600061186a8661184387612720565b84604051602001611856939291906146dd565b604051602081830303815290604052612720565b905060008160405160200161187f9190614786565b60405160208183030381529060405290506118b1604051806060016040528060398152602001614fe9603991396128b8565b6118f06040518060400160405280600e81526020017f46696e616c20746f6b656e55524900000000000000000000000000000000000081525082611b5b565b611911604051806060016040528060398152602001615053603991396128b8565b61191b3386612951565b611925858261296f565b33600b8b8b604051611938929190613b83565b908152602001604051809103902060000160006101000a81548173ffffffffffffffffffffffffffffffffffffffff021916908373ffffffffffffffffffffffffffffffffffffffff16021790555033600b8b8b60405161199a929190613b83565b908152602001604051809103902060010160006101000a81548173ffffffffffffffffffffffffffffffffffffffff021916908373ffffffffffffffffffffffffffffffffffffffff1602179055506119f360076129e3565b50505050505050505050565b6060600b8383604051611a13929190613b83565b90815260200160405180910390206003018054611a2f9061396b565b80601f0160208091040260200160405190810160405280929190818152602001828054611a5b9061396b565b8015611aa85780601f10611a7d57610100808354040283529160200191611aa8565b820191906000526020600020905b815481529060010190602001808311611a8b57829003601f168201915b5050505050905092915050565b600080611b0584848080601f016020809104026020016040519081016040528093929190818152602001838380828437600081840152601f19601f82011690508083019250505050505050612368565b905060008111611b1457600080fd5b6003811415611b2e576706f05b59d3b20000915050611b55565b6004811415611b4857670429d069189e0000915050611b55565b67016345785d8a00009150505b92915050565b611bf38282604051602401611b719291906147a8565b6040516020818303038152906040527f4b5c4277000000000000000000000000000000000000000000000000000000007bffffffffffffffffffffffffffffffffffffffffffffffffffffffff19166020820180517bffffffffffffffffffffffffffffffffffffffffffffffffffffffff83818316178352505050506129f9565b5050565b60007f01ffc9a7000000000000000000000000000000000000000000000000000000007bffffffffffffffffffffffffffffffffffffffffffffffffffffffff1916827bffffffffffffffffffffffffffffffffffffffffffffffffffffffff1916149050919050565b60008073ffffffffffffffffffffffffffffffffffffffff166002600084815260200190815260200160002060009054906101000a900473ffffffffffffffffffffffffffffffffffffffff1673ffffffffffffffffffffffffffffffffffffffff1614159050919050565b600033905090565b816004600083815260200190815260200160002060006101000a81548173ffffffffffffffffffffffffffffffffffffffff021916908373ffffffffffffffffffffffffffffffffffffffff160217905550808273ffffffffffffffffffffffffffffffffffffffff16611d4883610dd4565b73ffffffffffffffffffffffffffffffffffffffff167f8c5be1e5ebec7d5bd14f71427d1e84f3dd0314c0f7b2291e5b200ac8c7c3b92560405160405180910390a45050565b6000611d9982611c61565b611dd8576040517f08c379a0000000000000000000000000000000000000000000000000000000008152600401611dcf90614851565b60405180910390fd5b6000611de383610dd4565b90508073ffffffffffffffffffffffffffffffffffffffff168473ffffffffffffffffffffffffffffffffffffffff161480611e5257508373ffffffffffffffffffffffffffffffffffffffff16611e3a84610788565b73ffffffffffffffffffffffffffffffffffffffff16145b80611e635750611e628185611522565b5b91505092915050565b8273ffffffffffffffffffffffffffffffffffffffff16611e8c82610dd4565b73ffffffffffffffffffffffffffffffffffffffff1614611ee2576040517f08c379a0000000000000000000000000000000000000000000000000000000008152600401611ed9906148e3565b60405180910390fd5b600073ffffffffffffffffffffffffffffffffffffffff168273ffffffffffffffffffffffffffffffffffffffff161415611f52576040517f08c379a0000000000000000000000000000000000000000000000000000000008152600401611f4990614975565b60405180910390fd5b611f5d838383612a22565b611f68600082611cd5565b6001600360008573ffffffffffffffffffffffffffffffffffffffff1673ffffffffffffffffffffffffffffffffffffffff1681526020019081526020016000206000828254611fb891906149c4565b925050819055506001600360008473ffffffffffffffffffffffffffffffffffffffff1673ffffffffffffffffffffffffffffffffffffffff168152602001908152602001600020600082825461200f91906149f8565b92505081905550816002600083815260200190815260200160002060006101000a81548173ffffffffffffffffffffffffffffffffffffffff021916908373ffffffffffffffffffffffffffffffffffffffff160217905550808273ffffffffffffffffffffffffffffffffffffffff168473ffffffffffffffffffffffffffffffffffffffff167fddf252ad1be2c89b69c2b068fc378daa952ba7f163c4a11628f55a4df523b3ef60405160405180910390a46120ce838383612a27565b505050565b8173ffffffffffffffffffffffffffffffffffffffff168373ffffffffffffffffffffffffffffffffffffffff161415612142576040517f08c379a000000000000000000000000000000000000000000000000000000000815260040161213990614a9a565b60405180910390fd5b80600560008573ffffffffffffffffffffffffffffffffffffffff1673ffffffffffffffffffffffffffffffffffffffff16815260200190815260200160002060008473ffffffffffffffffffffffffffffffffffffffff1673ffffffffffffffffffffffffffffffffffffffff16815260200190815260200160002060006101000a81548160ff0219169083151502179055508173ffffffffffffffffffffffffffffffffffffffff168373ffffffffffffffffffffffffffffffffffffffff167f17307eab39ab6107e8899845ad3d59bd9653f200f220920489ca2b5937696c3183604051612233919061303d565b60405180910390a3505050565b61224b848484611e6c565b61225784848484612a2c565b612296576040517f08c379a000000000000000000000000000000000000000000000000000000000815260040161228d90614b2c565b60405180910390fd5b50505050565b606060405180602001604052806000815250905090565b60606122be82611c61565b6122fd576040517f08c379a00000000000000000000000000000000000000000000000000000000081526004016122f490614bbe565b60405180910390fd5b600061230761229c565b905060008151116123275760405180602001604052806000815250612352565b806123318461251d565b604051602001612342929190614312565b6040516020818303038152906040525b915050919050565b600081600001549050919050565b60008060008084519050600092505b8082101561251257600085838151811061239457612393614bde565b5b602001015160f81c60f81b9050608060f81b817effffffffffffffffffffffffffffffffffffffffffffffffffffffffffffff191610156123e3576001836123dc91906149f8565b92506124fe565b60e060f81b817effffffffffffffffffffffffffffffffffffffffffffffffffffffffffffff191610156124255760028361241e91906149f8565b92506124fd565b60f060f81b817effffffffffffffffffffffffffffffffffffffffffffffffffffffffffffff191610156124675760038361246091906149f8565b92506124fc565b60f8801b817effffffffffffffffffffffffffffffffffffffffffffffffffffffffffffff191610156124a8576004836124a191906149f8565b92506124fb565b60fc60f81b817effffffffffffffffffffffffffffffffffffffffffffffffffffffffffffff191610156124ea576005836124e391906149f8565b92506124fa565b6006836124f791906149f8565b92505b5b5b5b5b50828061250a90614c0d565b935050612377565b829350505050919050565b60606000821415612565576040518060400160405280600181526020017f30000000000000000000000000000000000000000000000000000000000000008152509050612679565b600082905060005b6000821461259757808061258090614c0d565b915050600a826125909190614c85565b915061256d565b60008167ffffffffffffffff8111156125b3576125b261342d565b5b6040519080825280601f01601f1916602001820160405280156125e55781602001600182028036833780820191505090505b5090505b60008514612672576001826125fe91906149c4565b9150600a8561260d9190614cb6565b603061261991906149f8565b60f81b81838151811061262f5761262e614bde565b5b60200101907effffffffffffffffffffffffffffffffffffffffffffffffffffffffffffff1916908160001a905350600a8561266b9190614c85565b94506125e9565b8093505050505b919050565b61271a848484846040516024016126989493929190614ce7565b6040516020818303038152906040527f9fd009f5000000000000000000000000000000000000000000000000000000007bffffffffffffffffffffffffffffffffffffffffffffffffffffffff19166020820180517bffffffffffffffffffffffffffffffffffffffffffffffffffffffff83818316178352505050506129f9565b50505050565b6060600082519050600081141561274957604051806020016040528060008152509150506128b3565b6000600360028361275a91906149f8565b6127649190614c85565b60046127709190614d41565b9050600060208261278191906149f8565b67ffffffffffffffff81111561279a5761279961342d565b5b6040519080825280601f01601f1916602001820160405280156127cc5781602001600182028036833780820191505090505b509050600060405180606001604052806040815260200161508c604091399050600181016020830160005b868110156128705760038101905062ffffff818a015116603f8160121c168401518060081b905060ff603f83600c1c1686015116810190508060081b905060ff603f8360061c1686015116810190508060081b905060ff603f831686015116810190508060e01b905080845260048401935050506127f7565b50600386066001811461288a576002811461289a576128a5565b613d3d60f01b60028303526128a5565b603d60f81b60018303525b508484525050819450505050505b919050565b61294e816040516024016128cc91906130f1565b6040516020818303038152906040527f41304fac000000000000000000000000000000000000000000000000000000007bffffffffffffffffffffffffffffffffffffffffffffffffffffffff19166020820180517bffffffffffffffffffffffffffffffffffffffffffffffffffffffff83818316178352505050506129f9565b50565b61296b828260405180602001604052806000815250612bb4565b5050565b61297882611c61565b6129b7576040517f08c379a00000000000000000000000000000000000000000000000000000000081526004016129ae90614e0d565b60405180910390fd5b806006600084815260200190815260200160002090805190602001906129de929190612ee6565b505050565b6001816000016000828254019250508190555050565b60008151905060006a636f6e736f6c652e6c6f679050602083016000808483855afa5050505050565b505050565b505050565b6000612a4d8473ffffffffffffffffffffffffffffffffffffffff16612c0f565b15612ba7578373ffffffffffffffffffffffffffffffffffffffff1663150b7a02612a76611ccd565b8786866040518563ffffffff1660e01b8152600401612a989493929190614e82565b6020604051808303816000875af1925050508015612ad457506040513d601f19601f82011682018060405250810190612ad19190614ee3565b60015b612b57573d8060008114612b04576040519150601f19603f3d011682016040523d82523d6000602084013e612b09565b606091505b50600081511415612b4f576040517f08c379a0000000000000000000000000000000000000000000000000000000008152600401612b4690614b2c565b60405180910390fd5b805181602001fd5b63150b7a0260e01b7bffffffffffffffffffffffffffffffffffffffffffffffffffffffff1916817bffffffffffffffffffffffffffffffffffffffffffffffffffffffff191614915050612bac565b600190505b949350505050565b612bbe8383612c32565b612bcb6000848484612a2c565b612c0a576040517f08c379a0000000000000000000000000000000000000000000000000000000008152600401612c0190614b2c565b60405180910390fd5b505050565b6000808273ffffffffffffffffffffffffffffffffffffffff163b119050919050565b600073ffffffffffffffffffffffffffffffffffffffff168273ffffffffffffffffffffffffffffffffffffffff161415612ca2576040517f08c379a0000000000000000000000000000000000000000000000000000000008152600401612c9990614f5c565b60405180910390fd5b612cab81611c61565b15612ceb576040517f08c379a0000000000000000000000000000000000000000000000000000000008152600401612ce290614fc8565b60405180910390fd5b612cf760008383612a22565b6001600360008473ffffffffffffffffffffffffffffffffffffffff1673ffffffffffffffffffffffffffffffffffffffff1681526020019081526020016000206000828254612d4791906149f8565b92505081905550816002600083815260200190815260200160002060006101000a81548173ffffffffffffffffffffffffffffffffffffffff021916908373ffffffffffffffffffffffffffffffffffffffff160217905550808273ffffffffffffffffffffffffffffffffffffffff16600073ffffffffffffffffffffffffffffffffffffffff167fddf252ad1be2c89b69c2b068fc378daa952ba7f163c4a11628f55a4df523b3ef60405160405180910390a4612e0860008383612a27565b5050565b6040518060800160405280600073ffffffffffffffffffffffffffffffffffffffff168152602001600073ffffffffffffffffffffffffffffffffffffffff16815260200160608152602001606081525090565b828054612e6c9061396b565b90600052602060002090601f016020900481019282612e8e5760008555612ed5565b82601f10612ea757803560ff1916838001178555612ed5565b82800160010185558215612ed5579182015b82811115612ed4578235825591602001919060010190612eb9565b5b509050612ee29190612f6c565b5090565b828054612ef29061396b565b90600052602060002090601f016020900481019282612f145760008555612f5b565b82601f10612f2d57805160ff1916838001178555612f5b565b82800160010185558215612f5b579182015b82811115612f5a578251825591602001919060010190612f3f565b5b509050612f689190612f6c565b5090565b5b80821115612f85576000816000905550600101612f6d565b5090565b6000604051905090565b600080fd5b600080fd5b60007fffffffff0000000000000000000000000000000000000000000000000000000082169050919050565b612fd281612f9d565b8114612fdd57600080fd5b50565b600081359050612fef81612fc9565b92915050565b60006020828403121561300b5761300a612f93565b5b600061301984828501612fe0565b91505092915050565b60008115159050919050565b61303781613022565b82525050565b6000602082019050613052600083018461302e565b92915050565b600081519050919050565b600082825260208201905092915050565b60005b83811015613092578082015181840152602081019050613077565b838111156130a1576000848401525b50505050565b6000601f19601f8301169050919050565b60006130c382613058565b6130cd8185613063565b93506130dd818560208601613074565b6130e6816130a7565b840191505092915050565b6000602082019050818103600083015261310b81846130b8565b905092915050565b6000819050919050565b61312681613113565b811461313157600080fd5b50565b6000813590506131438161311d565b92915050565b60006020828403121561315f5761315e612f93565b5b600061316d84828501613134565b91505092915050565b600073ffffffffffffffffffffffffffffffffffffffff82169050919050565b60006131a182613176565b9050919050565b6131b181613196565b82525050565b60006020820190506131cc60008301846131a8565b92915050565b6131db81613196565b81146131e657600080fd5b50565b6000813590506131f8816131d2565b92915050565b6000806040838503121561321557613214612f93565b5b6000613223858286016131e9565b925050602061323485828601613134565b9150509250929050565b600080fd5b600080fd5b600080fd5b60008083601f8401126132635761326261323e565b5b8235905067ffffffffffffffff8111156132805761327f613243565b5b60208301915083600182028301111561329c5761329b613248565b5b9250929050565b600080602083850312156132ba576132b9612f93565b5b600083013567ffffffffffffffff8111156132d8576132d7612f98565b5b6132e48582860161324d565b92509250509250929050565b6132f981613196565b82525050565b600082825260208201905092915050565b600061331b82613058565b61332581856132ff565b9350613335818560208601613074565b61333e816130a7565b840191505092915050565b600060808301600083015161336160008601826132f0565b50602083015161337460208601826132f0565b506040830151848203604086015261338c8282613310565b915050606083015184820360608601526133a68282613310565b9150508091505092915050565b600060208201905081810360008301526133cd8184613349565b905092915050565b6000806000606084860312156133ee576133ed612f93565b5b60006133fc868287016131e9565b935050602061340d868287016131e9565b925050604061341e86828701613134565b9150509250925092565b600080fd5b7f4e487b7100000000000000000000000000000000000000000000000000000000600052604160045260246000fd5b613465826130a7565b810181811067ffffffffffffffff821117156134845761348361342d565b5b80604052505050565b6000613497612f89565b90506134a3828261345c565b919050565b600067ffffffffffffffff8211156134c3576134c261342d565b5b6134cc826130a7565b9050602081019050919050565b82818337600083830152505050565b60006134fb6134f6846134a8565b61348d565b90508281526020810184848401111561351757613516613428565b5b6135228482856134d9565b509392505050565b600082601f83011261353f5761353e61323e565b5b813561354f8482602086016134e8565b91505092915050565b60006020828403121561356e5761356d612f93565b5b600082013567ffffffffffffffff81111561358c5761358b612f98565b5b6135988482850161352a565b91505092915050565b60006080820190506135b660008301876131a8565b6135c360208301866131a8565b81810360408301526135d581856130b8565b905081810360608301526135e981846130b8565b905095945050505050565b60006020828403121561360a57613609612f93565b5b6000613618848285016131e9565b91505092915050565b61362a81613113565b82525050565b60006020820190506136456000830184613621565b92915050565b600080fd5b6000608082840312156136665761366561364b565b5b81905092915050565b60008060006040848603121561368857613687612f93565b5b600084013567ffffffffffffffff8111156136a6576136a5612f98565b5b6136b28682870161324d565b9350935050602084013567ffffffffffffffff8111156136d5576136d4612f98565b5b6136e186828701613650565b9150509250925092565b6136f481613022565b81146136ff57600080fd5b50565b600081359050613711816136eb565b92915050565b6000806040838503121561372e5761372d612f93565b5b600061373c858286016131e9565b925050602061374d85828601613702565b9150509250929050565b6000806000806040858703121561377157613770612f93565b5b600085013567ffffffffffffffff81111561378f5761378e612f98565b5b61379b8782880161324d565b9450945050602085013567ffffffffffffffff8111156137be576137bd612f98565b5b6137ca8782880161324d565b925092505092959194509250565b600067ffffffffffffffff8211156137f3576137f261342d565b5b6137fc826130a7565b9050602081019050919050565b600061381c613817846137d8565b61348d565b90508281526020810184848401111561383857613837613428565b5b6138438482856134d9565b509392505050565b600082601f8301126138605761385f61323e565b5b8135613870848260208601613809565b91505092915050565b6000806000806080858703121561389357613892612f93565b5b60006138a1878288016131e9565b94505060206138b2878288016131e9565b93505060406138c387828801613134565b925050606085013567ffffffffffffffff8111156138e4576138e3612f98565b5b6138f08782880161384b565b91505092959194509250565b6000806040838503121561391357613912612f93565b5b6000613921858286016131e9565b9250506020613932858286016131e9565b9150509250929050565b7f4e487b7100000000000000000000000000000000000000000000000000000000600052602260045260246000fd5b6000600282049050600182168061398357607f821691505b602082108114156139975761399661393c565b5b50919050565b7f4552433732313a20617070726f76656420717565727920666f72206e6f6e657860008201527f697374656e7420746f6b656e0000000000000000000000000000000000000000602082015250565b60006139f9602c83613063565b9150613a048261399d565b604082019050919050565b60006020820190508181036000830152613a28816139ec565b9050919050565b7f4552433732313a20617070726f76616c20746f2063757272656e74206f776e6560008201527f7200000000000000000000000000000000000000000000000000000000000000602082015250565b6000613a8b602183613063565b9150613a9682613a2f565b604082019050919050565b60006020820190508181036000830152613aba81613a7e565b9050919050565b7f4552433732313a20617070726f76652063616c6c6572206973206e6f74206f7760008201527f6e6572206e6f7220617070726f76656420666f7220616c6c0000000000000000602082015250565b6000613b1d603883613063565b9150613b2882613ac1565b604082019050919050565b60006020820190508181036000830152613b4c81613b10565b9050919050565b600081905092915050565b6000613b6a8385613b53565b9350613b778385846134d9565b82840190509392505050565b6000613b90828486613b5e565b91508190509392505050565b7f4552433732313a207472616e736665722063616c6c6572206973206e6f74206f60008201527f776e6572206e6f7220617070726f766564000000000000000000000000000000602082015250565b6000613bf8603183613063565b9150613c0382613b9c565b604082019050919050565b60006020820190508181036000830152613c2781613beb565b9050919050565b7f4552433732313a206f776e657220717565727920666f72206e6f6e657869737460008201527f656e7420746f6b656e0000000000000000000000000000000000000000000000602082015250565b6000613c8a602983613063565b9150613c9582613c2e565b604082019050919050565b60006020820190508181036000830152613cb981613c7d565b9050919050565b7f4552433732313a2062616c616e636520717565727920666f7220746865207a6560008201527f726f206164647265737300000000000000000000000000000000000000000000602082015250565b6000613d1c602a83613063565b9150613d2782613cc0565b604082019050919050565b60006020820190508181036000830152613d4b81613d0f565b9050919050565b60008135613d5f816131d2565b80915050919050565b60008160001b9050919050565b600073ffffffffffffffffffffffffffffffffffffffff613d9584613d68565b9350801983169250808416831791505092915050565b6000819050919050565b6000613dd0613dcb613dc684613176565b613dab565b613176565b9050919050565b6000613de282613db5565b9050919050565b6000613df482613dd7565b9050919050565b6000819050919050565b613e0e82613de9565b613e21613e1a82613dfb565b8354613d75565b8255505050565b600080fd5b600080fd5b600080fd5b60008083356001602003843603038112613e5457613e53613e28565b5b80840192508235915067ffffffffffffffff821115613e7657613e75613e2d565b5b602083019250600182023603831315613e9257613e91613e32565b5b509250929050565b600082905092915050565b60008190508160005260206000209050919050565b60006020601f8301049050919050565b600082821b905092915050565b600060088302613f077fffffffffffffffffffffffffffffffffffffffffffffffffffffffffffffffff82613eca565b613f118683613eca565b95508019841693508086168417925050509392505050565b6000613f44613f3f613f3a84613113565b613dab565b613113565b9050919050565b6000819050919050565b613f5e83613f29565b613f72613f6a82613f4b565b848454613ed7565b825550505050565b600090565b613f87613f7a565b613f92818484613f55565b505050565b5b81811015613fb657613fab600082613f7f565b600181019050613f98565b5050565b601f821115613ffb57613fcc81613ea5565b613fd584613eba565b81016020851015613fe4578190505b613ff8613ff085613eba565b830182613f97565b50505b505050565b600082821c905092915050565b600061401e60001984600802614000565b1980831691505092915050565b6000614037838361400d565b9150826002028217905092915050565b6140518383613e9a565b67ffffffffffffffff81111561406a5761406961342d565b5b614074825461396b565b61407f828285613fba565b6000601f8311600181146140ae576000841561409c578287013590505b6140a6858261402b565b86555061410e565b601f1984166140bc86613ea5565b60005b828110156140e4578489013582556001820191506020850194506020810190506140bf565b8683101561410157848901356140fd601f89168261400d565b8355505b6001600288020188555050505b50505050505050565b614122838383614047565b505050565b60008101600083018061413981613d52565b90506141458184613e05565b50505060018101602083018061415a81613d52565b90506141668184613e05565b505050600281016040830161417b8185613e37565b614186818386614117565b50505050600381016060830161419c8185613e37565b6141a7818386614117565b505050505050565b6141b98282614127565b5050565b7f6f6e6c792074686520646f6d61696e20636f6e74726f6c6c65722063616e207360008201527f657420697427732027636f6e74656e7427000000000000000000000000000000602082015250565b6000614219603183613063565b9150614224826141bd565b604082019050919050565b600060208201905081810360008301526142488161420c565b9050919050565b7f45524337323155524953746f726167653a2055524920717565727920666f722060008201527f6e6f6e6578697374656e7420746f6b656e000000000000000000000000000000602082015250565b60006142ab603183613063565b91506142b68261424f565b604082019050919050565b600060208201905081810360008301526142da8161429e565b9050919050565b60006142ec82613058565b6142f68185613b53565b9350614306818560208601613074565b80840191505092915050565b600061431e82856142e1565b915061432a82846142e1565b91508190509392505050565b7f6f6e6c792074686520646f6d61696e20636f6e74726f6c6c65722063616e207360008201527f657420697427732027656d61696c270000000000000000000000000000000000602082015250565b6000614392602f83613063565b915061439d82614336565b604082019050919050565b600060208201905081810360008301526143c181614385565b9050919050565b7f4e6f7420656e6f756768204d6174696320706169640000000000000000000000600082015250565b60006143fe601583613063565b9150614409826143c8565b602082019050919050565b6000602082019050818103600083015261442d816143f1565b9050919050565b7f2e00000000000000000000000000000000000000000000000000000000000000600082015250565b600061446a600183613b53565b915061447582614434565b600182019050919050565b6000815461448d8161396b565b6144978186613b53565b945060018216600081146144b257600181146144c3576144f6565b60ff198316865281860193506144f6565b6144cc85613ea5565b60005b838110156144ee578154818901526001820191506020810190506144cf565b838801955050505b50505092915050565b600061450c828587613b5e565b91506145178261445d565b91506145238284614480565b9150819050949350505050565b600061453c8286614480565b915061454882856142e1565b91506145548284614480565b9150819050949350505050565b7f7b226e616d65223a202200000000000000000000000000000000000000000000600082015250565b6000614597600a83613b53565b91506145a282614561565b600a82019050919050565b7f222c20226465736372697074696f6e223a20224120646f6d61696e206f6e207460008201527f686520416476657262204e616d652053657276696365222c2022696d6167652260208201527f3a2022646174613a696d6167652f7376672b786d6c3b6261736536342c000000604082015250565b600061462f605d83613b53565b915061463a826145ad565b605d82019050919050565b7f222c226c656e677468223a220000000000000000000000000000000000000000600082015250565b600061467b600c83613b53565b915061468682614645565b600c82019050919050565b7f227d000000000000000000000000000000000000000000000000000000000000600082015250565b60006146c7600283613b53565b91506146d282614691565b600282019050919050565b60006146e88261458a565b91506146f482866142e1565b91506146ff82614622565b915061470b82856142e1565b91506147168261466e565b915061472282846142e1565b915061472d826146ba565b9150819050949350505050565b7f646174613a6170706c69636174696f6e2f6a736f6e3b6261736536342c000000600082015250565b6000614770601d83613b53565b915061477b8261473a565b601d82019050919050565b600061479182614763565b915061479d82846142e1565b915081905092915050565b600060408201905081810360008301526147c281856130b8565b905081810360208301526147d681846130b8565b90509392505050565b7f4552433732313a206f70657261746f7220717565727920666f72206e6f6e657860008201527f697374656e7420746f6b656e0000000000000000000000000000000000000000602082015250565b600061483b602c83613063565b9150614846826147df565b604082019050919050565b6000602082019050818103600083015261486a8161482e565b9050919050565b7f4552433732313a207472616e736665722066726f6d20696e636f72726563742060008201527f6f776e6572000000000000000000000000000000000000000000000000000000602082015250565b60006148cd602583613063565b91506148d882614871565b604082019050919050565b600060208201905081810360008301526148fc816148c0565b9050919050565b7f4552433732313a207472616e7366657220746f20746865207a65726f2061646460008201527f7265737300000000000000000000000000000000000000000000000000000000602082015250565b600061495f602483613063565b915061496a82614903565b604082019050919050565b6000602082019050818103600083015261498e81614952565b9050919050565b7f4e487b7100000000000000000000000000000000000000000000000000000000600052601160045260246000fd5b60006149cf82613113565b91506149da83613113565b9250828210156149ed576149ec614995565b5b828203905092915050565b6000614a0382613113565b9150614a0e83613113565b9250827fffffffffffffffffffffffffffffffffffffffffffffffffffffffffffffffff03821115614a4357614a42614995565b5b828201905092915050565b7f4552433732313a20617070726f766520746f2063616c6c657200000000000000600082015250565b6000614a84601983613063565b9150614a8f82614a4e565b602082019050919050565b60006020820190508181036000830152614ab381614a77565b9050919050565b7f4552433732313a207472616e7366657220746f206e6f6e20455243373231526560008201527f63656976657220696d706c656d656e7465720000000000000000000000000000602082015250565b6000614b16603283613063565b9150614b2182614aba565b604082019050919050565b60006020820190508181036000830152614b4581614b09565b9050919050565b7f4552433732314d657461646174613a2055524920717565727920666f72206e6f60008201527f6e6578697374656e7420746f6b656e0000000000000000000000000000000000602082015250565b6000614ba8602f83613063565b9150614bb382614b4c565b604082019050919050565b60006020820190508181036000830152614bd781614b9b565b9050919050565b7f4e487b7100000000000000000000000000000000000000000000000000000000600052603260045260246000fd5b6000614c1882613113565b91507fffffffffffffffffffffffffffffffffffffffffffffffffffffffffffffffff821415614c4b57614c4a614995565b5b600182019050919050565b7f4e487b7100000000000000000000000000000000000000000000000000000000600052601260045260246000fd5b6000614c9082613113565b9150614c9b83613113565b925082614cab57614caa614c56565b5b828204905092915050565b6000614cc182613113565b9150614ccc83613113565b925082614cdc57614cdb614c56565b5b828206905092915050565b60006080820190508181036000830152614d0181876130b8565b90508181036020830152614d1581866130b8565b90508181036040830152614d2981856130b8565b9050614d386060830184613621565b95945050505050565b6000614d4c82613113565b9150614d5783613113565b9250817fffffffffffffffffffffffffffffffffffffffffffffffffffffffffffffffff0483118215151615614d9057614d8f614995565b5b828202905092915050565b7f45524337323155524953746f726167653a2055524920736574206f66206e6f6e60008201527f6578697374656e7420746f6b656e000000000000000000000000000000000000602082015250565b6000614df7602e83613063565b9150614e0282614d9b565b604082019050919050565b60006020820190508181036000830152614e2681614dea565b9050919050565b600081519050919050565b600082825260208201905092915050565b6000614e5482614e2d565b614e5e8185614e38565b9350614e6e818560208601613074565b614e77816130a7565b840191505092915050565b6000608082019050614e9760008301876131a8565b614ea460208301866131a8565b614eb16040830185613621565b8181036060830152614ec38184614e49565b905095945050505050565b600081519050614edd81612fc9565b92915050565b600060208284031215614ef957614ef8612f93565b5b6000614f0784828501614ece565b91505092915050565b7f4552433732313a206d696e7420746f20746865207a65726f2061646472657373600082015250565b6000614f46602083613063565b9150614f5182614f10565b602082019050919050565b60006020820190508181036000830152614f7581614f39565b9050919050565b7f4552433732313a20746f6b656e20616c7265616479206d696e74656400000000600082015250565b6000614fb2601c83613063565b9150614fbd82614f7c565b602082019050919050565b60006020820190508181036000830152614fe181614fa5565b905091905056fe0a2d2d2d2d2d2d2d2d2d2d2d2d2d2d2d2d2d2d2d2d2d2d2d2d2d2d2d2d2d2d2d2d2d2d2d2d2d2d2d2d2d2d2d2d2d2d2d2d2d2d2d2d2d2d2d2d5265676973746572696e672025732e2573206f6e2074686520636f6e7472616374207769746820746f6b656e49442025642d2d2d2d2d2d2d2d2d2d2d2d2d2d2d2d2d2d2d2d2d2d2d2d2d2d2d2d2d2d2d2d2d2d2d2d2d2d2d2d2d2d2d2d2d2d2d2d2d2d2d2d2d2d2d2d0a4142434445464748494a4b4c4d4e4f505152535455565758595a6162636465666768696a6b6c6d6e6f707172737475767778797a303132333435363738392b2fa2646970667358221220424ad7a0e44f57a819b502268f610d47248a8cc8fd4391e3b46abad88c892bd064736f6c634300080a00333c73766720786d6c6e733d22687474703a2f2f7777772e77332e6f72672f323030302f737667222077696474683d2232373022206865696768743d22323730222066696c6c3d226e6f6e65223e3c706174682066696c6c3d2275726c282342292220643d224d302030683237307632373048307a222f3e3c646566733e3c66696c7465722069643d22412220636f6c6f722d696e746572706f6c6174696f6e2d66696c746572733d2273524742222066696c746572556e6974733d227573657253706163654f6e55736522206865696768743d22323730222077696474683d22323730223e3c666544726f70536861646f772064783d2230222064793d22312220737464446576696174696f6e3d22322220666c6f6f642d6f7061636974793d222e323235222077696474683d223230302522206865696768743d2232303025222f3e3c2f66696c7465723e3c2f646566733e3c7061746820643d224d37322e3836332034322e393439632d2e3636382d2e3338372d312e3432362d2e35392d322e3139372d2e3539732d312e3532392e3230342d322e3139372e35396c2d31302e30383120362e3033322d362e383520332e3933342d31302e30383120362e303332632d2e3636382e3338372d312e3432362e35392d322e3139372e3539732d312e3532392d2e3230342d322e3139372d2e35396c2d382e3031332d342e37323161342e353220342e35322030203020312d312e3538392d312e363136632d2e3338342d2e3636352d2e3539342d312e3431382d2e3630382d322e313837762d392e3331632d2e3031332d2e3737352e3138352d312e3533382e3537322d322e32303861342e323520342e323520302030203120312e3632352d312e3539356c372e3838342d342e3539632e3636382d2e33383720312e3432362d2e353920322e3139372d2e353973312e3532392e32303420322e3139372e35396c372e38383420342e353961342e353220342e353220302030203120312e35383920312e363136632e3338342e3636352e35393420312e3431382e36303820322e31383776362e3033326c362e38352d342e303635762d362e303332632e3031332d2e3737352d2e3138352d312e3533382d2e3537322d322e32303861342e323520342e32352030203020302d312e3632352d312e3539354c34312e3435362032342e3539632d2e3636382d2e3338372d312e3432362d2e35392d322e3139372d2e3539732d312e3532392e3230342d322e3139372e35396c2d31342e38363420382e36353561342e323520342e32352030203020302d312e36323520312e353935632d2e3338372e36372d2e35383520312e3433342d2e35373220322e3230387631372e343431632d2e3031332e3737352e31383520312e3533382e35373220322e32303861342e323520342e323520302030203020312e36323520312e3539356c31342e38363420382e363535632e3636382e33383720312e3432362e353920322e3139372e353973312e3532392d2e32303420322e3139372d2e35396c31302e3038312d352e39303120362e38352d342e3036352031302e3038312d352e393031632e3636382d2e33383720312e3432362d2e353920322e3139372d2e353973312e3532392e32303420322e3139372e35396c372e38383420342e353961342e353220342e353220302030203120312e35383920312e363136632e3338342e3636352e35393420312e3431382e36303820322e31383776392e333131632e3031332e3737352d2e31383520312e3533382d2e35373220322e32303861342e323520342e32352030203020312d312e36323520312e3539356c2d372e38383420342e373231632d2e3636382e3338372d312e3432362e35392d322e3139372e3539732d312e3532392d2e3230342d322e3139372d2e35396c2d372e3838342d342e353961342e353220342e35322030203020312d312e3538392d312e363136632d2e3338352d2e3636352d2e3539342d312e3431382d2e3630382d322e313837762d362e3033326c2d362e383520342e30363576362e303332632d2e3031332e3737352e31383520312e3533382e35373220322e32303861342e323520342e323520302030203020312e36323520312e3539356c31342e38363420382e363535632e3636382e33383720312e3432362e353920322e3139372e353973312e3532392d2e32303420322e3139372d2e35396c31342e3836342d382e363535632e3635372d2e33393420312e3230342d2e393520312e3538392d312e363136732e3539342d312e3431382e3630392d322e3138375635352e353338632e3031332d2e3737352d2e3138352d312e3533382d2e3537322d322e32303861342e323520342e32352030203020302d312e3632352d312e3539356c2d31342e3939332d382e3738367a222066696c6c3d2223666666222f3e3c646566733e3c6c696e6561724772616469656e742069643d2242222078313d2230222079313d2230222078323d22323730222079323d2232373022206772616469656e74556e6974733d227573657253706163654f6e557365223e3c73746f702073746f702d636f6c6f723d2223636235656565222f3e3c73746f70206f66667365743d2231222073746f702d636f6c6f723d2223306364376534222073746f702d6f7061636974793d222e3939222f3e3c2f6c696e6561724772616469656e743e3c2f646566733e3c7465787420783d2233322e352220793d223233312220666f6e742d73697a653d223237222066696c6c3d2223666666222066696c7465723d2275726c282341292220666f6e742d66616d696c793d22506c7573204a616b617274612053616e732c44656a6156752053616e732c4e6f746f20436f6c6f7220456d6f6a692c4170706c6520436f6c6f7220456d6f6a692c73616e732d73657269662220666f6e742d7765696768743d22626f6c64223e",
  "linkReferences": {},
  "deployedLinkReferences": {}
}