{
  "_format": "hh-sol-artifact-1",
  "contractName": "Domains",
  "sourceName": "contracts/DNS.sol",
  "abi": [
    {
      "inputs": [
        {
          "internalType": "string",
          "name": "_tld",
          "type": "string"
        }
      ],
      "stateMutability": "payable",
      "type": "constructor"
    },
    {
      "inputs": [],
      "name": "AlreadyRegistered",
      "type": "error"
    },
    {
      "inputs": [
        {
          "internalType": "string",
          "name": "name",
          "type": "string"
        }
      ],
      "name": "InvalidName",
      "type": "error"
    },
    {
      "inputs": [],
      "name": "Unauthorized",
      "type": "error"
    },
    {
      "anonymous": false,
      "inputs": [
        {
          "indexed": true,
          "internalType": "address",
          "name": "owner",
          "type": "address"
        },
        {
          "indexed": true,
          "internalType": "address",
          "name": "approved",
          "type": "address"
        },
        {
          "indexed": true,
          "internalType": "uint256",
          "name": "tokenId",
          "type": "uint256"
        }
      ],
      "name": "Approval",
      "type": "event"
    },
    {
      "anonymous": false,
      "inputs": [
        {
          "indexed": true,
          "internalType": "address",
          "name": "owner",
          "type": "address"
        },
        {
          "indexed": true,
          "internalType": "address",
          "name": "operator",
          "type": "address"
        },
        {
          "indexed": false,
          "internalType": "bool",
          "name": "approved",
          "type": "bool"
        }
      ],
      "name": "ApprovalForAll",
      "type": "event"
    },
    {
      "anonymous": false,
      "inputs": [
        {
          "indexed": true,
          "internalType": "address",
          "name": "from",
          "type": "address"
        },
        {
          "indexed": true,
          "internalType": "address",
          "name": "to",
          "type": "address"
        },
        {
          "indexed": true,
          "internalType": "uint256",
          "name": "tokenId",
          "type": "uint256"
        }
      ],
      "name": "Transfer",
      "type": "event"
    },
    {
      "inputs": [
        {
          "internalType": "address",
          "name": "to",
          "type": "address"
        },
        {
          "internalType": "uint256",
          "name": "tokenId",
          "type": "uint256"
        }
      ],
      "name": "approve",
      "outputs": [],
      "stateMutability": "nonpayable",
      "type": "function"
    },
    {
      "inputs": [
        {
          "internalType": "address",
          "name": "owner",
          "type": "address"
        }
      ],
      "name": "balanceOf",
      "outputs": [
        {
          "internalType": "uint256",
          "name": "",
          "type": "uint256"
        }
      ],
      "stateMutability": "view",
      "type": "function"
    },
    {
      "inputs": [
        {
          "internalType": "string",
          "name": "name",
          "type": "string"
        }
      ],
      "name": "getAddress",
      "outputs": [
        {
          "internalType": "address",
          "name": "",
          "type": "address"
        }
      ],
      "stateMutability": "view",
      "type": "function"
    },
    {
      "inputs": [],
      "name": "getAllNames",
      "outputs": [
        {
          "internalType": "string[]",
          "name": "",
          "type": "string[]"
        }
      ],
      "stateMutability": "view",
      "type": "function"
    },
    {
      "inputs": [
        {
          "internalType": "uint256",
          "name": "tokenId",
          "type": "uint256"
        }
      ],
      "name": "getApproved",
      "outputs": [
        {
          "internalType": "address",
          "name": "",
          "type": "address"
        }
      ],
      "stateMutability": "view",
      "type": "function"
    },
    {
      "inputs": [
        {
          "internalType": "string",
          "name": "name",
          "type": "string"
        }
      ],
      "name": "getId",
      "outputs": [
        {
          "internalType": "uint256",
          "name": "",
          "type": "uint256"
        }
      ],
      "stateMutability": "view",
      "type": "function"
    },
    {
      "inputs": [
        {
          "internalType": "string",
          "name": "name",
          "type": "string"
        },
        {
          "internalType": "enum RecordType",
          "name": "recordType",
          "type": "uint8"
        }
      ],
      "name": "getRecord",
      "outputs": [
        {
          "internalType": "string",
          "name": "",
          "type": "string"
        }
      ],
      "stateMutability": "view",
      "type": "function"
    },
    {
      "inputs": [
        {
          "internalType": "string",
          "name": "name",
          "type": "string"
        }
      ],
      "name": "getRecords",
      "outputs": [
        {
          "internalType": "string[]",
          "name": "",
          "type": "string[]"
        },
        {
          "internalType": "address",
          "name": "",
          "type": "address"
        }
      ],
      "stateMutability": "view",
      "type": "function"
    },
    {
      "inputs": [
        {
          "internalType": "string",
          "name": "",
          "type": "string"
        }
      ],
      "name": "ids",
      "outputs": [
        {
          "internalType": "uint256",
          "name": "",
          "type": "uint256"
        }
      ],
      "stateMutability": "view",
      "type": "function"
    },
    {
      "inputs": [
        {
          "internalType": "address",
          "name": "owner",
          "type": "address"
        },
        {
          "internalType": "address",
          "name": "operator",
          "type": "address"
        }
      ],
      "name": "isApprovedForAll",
      "outputs": [
        {
          "internalType": "bool",
          "name": "",
          "type": "bool"
        }
      ],
      "stateMutability": "view",
      "type": "function"
    },
    {
      "inputs": [],
      "name": "isOwner",
      "outputs": [
        {
          "internalType": "bool",
          "name": "",
          "type": "bool"
        }
      ],
      "stateMutability": "view",
      "type": "function"
    },
    {
      "inputs": [
        {
          "internalType": "string",
          "name": "name",
          "type": "string"
        }
      ],
      "name": "isSet",
      "outputs": [
        {
          "internalType": "bool",
          "name": "",
          "type": "bool"
        }
      ],
      "stateMutability": "pure",
      "type": "function"
    },
    {
      "inputs": [],
      "name": "name",
      "outputs": [
        {
          "internalType": "string",
          "name": "",
          "type": "string"
        }
      ],
      "stateMutability": "view",
      "type": "function"
    },
    {
      "inputs": [
        {
          "internalType": "uint256",
          "name": "",
          "type": "uint256"
        }
      ],
      "name": "names",
      "outputs": [
        {
          "internalType": "string",
          "name": "",
          "type": "string"
        }
      ],
      "stateMutability": "view",
      "type": "function"
    },
    {
      "inputs": [],
      "name": "owner",
      "outputs": [
        {
          "internalType": "address payable",
          "name": "",
          "type": "address"
        }
      ],
      "stateMutability": "view",
      "type": "function"
    },
    {
      "inputs": [
        {
          "internalType": "uint256",
          "name": "tokenId",
          "type": "uint256"
        }
      ],
      "name": "ownerOf",
      "outputs": [
        {
          "internalType": "address",
          "name": "",
          "type": "address"
        }
      ],
      "stateMutability": "view",
      "type": "function"
    },
    {
      "inputs": [
        {
          "internalType": "string",
          "name": "name",
          "type": "string"
        }
      ],
      "name": "price",
      "outputs": [
        {
          "internalType": "uint256",
          "name": "",
          "type": "uint256"
        }
      ],
      "stateMutability": "pure",
      "type": "function"
    },
    {
      "inputs": [
        {
          "internalType": "string",
          "name": "",
          "type": "string"
        }
      ],
      "name": "records",
      "outputs": [
        {
          "internalType": "string",
          "name": "avatar",
          "type": "string"
        },
        {
          "internalType": "string",
          "name": "twitterTag",
          "type": "string"
        },
        {
          "internalType": "string",
          "name": "website",
          "type": "string"
        },
        {
          "internalType": "string",
          "name": "email",
          "type": "string"
        },
        {
          "internalType": "string",
          "name": "description",
          "type": "string"
        }
      ],
      "stateMutability": "view",
      "type": "function"
    },
    {
      "inputs": [
        {
          "internalType": "string",
          "name": "name",
          "type": "string"
        }
      ],
      "name": "register",
      "outputs": [],
      "stateMutability": "payable",
      "type": "function"
    },
    {
      "inputs": [
        {
          "internalType": "address",
          "name": "from",
          "type": "address"
        },
        {
          "internalType": "address",
          "name": "to",
          "type": "address"
        },
        {
          "internalType": "uint256",
          "name": "tokenId",
          "type": "uint256"
        }
      ],
      "name": "safeTransferFrom",
      "outputs": [],
      "stateMutability": "nonpayable",
      "type": "function"
    },
    {
      "inputs": [
        {
          "internalType": "address",
          "name": "from",
          "type": "address"
        },
        {
          "internalType": "address",
          "name": "to",
          "type": "address"
        },
        {
          "internalType": "uint256",
          "name": "tokenId",
          "type": "uint256"
        },
        {
          "internalType": "bytes",
          "name": "_data",
          "type": "bytes"
        }
      ],
      "name": "safeTransferFrom",
      "outputs": [],
      "stateMutability": "nonpayable",
      "type": "function"
    },
    {
      "inputs": [
        {
          "internalType": "address",
          "name": "operator",
          "type": "address"
        },
        {
          "internalType": "bool",
          "name": "approved",
          "type": "bool"
        }
      ],
      "name": "setApprovalForAll",
      "outputs": [],
      "stateMutability": "nonpayable",
      "type": "function"
    },
    {
      "inputs": [
        {
          "internalType": "string",
          "name": "name",
          "type": "string"
        },
        {
          "internalType": "string",
          "name": "record",
          "type": "string"
        },
        {
          "internalType": "enum RecordType",
          "name": "recordType",
          "type": "uint8"
        }
      ],
      "name": "setRecord",
      "outputs": [],
      "stateMutability": "nonpayable",
      "type": "function"
    },
    {
      "inputs": [
        {
          "internalType": "string",
          "name": "name",
          "type": "string"
        },
        {
          "internalType": "string",
          "name": "_avatar",
          "type": "string"
        },
        {
          "internalType": "string",
          "name": "_twitterTag",
          "type": "string"
        },
        {
          "internalType": "string",
          "name": "_website",
          "type": "string"
        },
        {
          "internalType": "string",
          "name": "_email",
          "type": "string"
        },
        {
          "internalType": "string",
          "name": "_description",
          "type": "string"
        }
      ],
      "name": "setRecords",
      "outputs": [],
      "stateMutability": "nonpayable",
      "type": "function"
    },
    {
      "inputs": [
        {
          "internalType": "bytes4",
          "name": "interfaceId",
          "type": "bytes4"
        }
      ],
      "name": "supportsInterface",
      "outputs": [
        {
          "internalType": "bool",
          "name": "",
          "type": "bool"
        }
      ],
      "stateMutability": "view",
      "type": "function"
    },
    {
      "inputs": [],
      "name": "symbol",
      "outputs": [
        {
          "internalType": "string",
          "name": "",
          "type": "string"
        }
      ],
      "stateMutability": "view",
      "type": "function"
    },
    {
      "inputs": [],
      "name": "tld",
      "outputs": [
        {
          "internalType": "string",
          "name": "",
          "type": "string"
        }
      ],
      "stateMutability": "view",
      "type": "function"
    },
    {
      "inputs": [
        {
          "internalType": "uint256",
          "name": "tokenId",
          "type": "uint256"
        }
      ],
      "name": "tokenURI",
      "outputs": [
        {
          "internalType": "string",
          "name": "",
          "type": "string"
        }
      ],
      "stateMutability": "view",
      "type": "function"
    },
    {
      "inputs": [
        {
          "internalType": "address",
          "name": "from",
          "type": "address"
        },
        {
          "internalType": "address",
          "name": "to",
          "type": "address"
        },
        {
          "internalType": "uint256",
          "name": "tokenId",
          "type": "uint256"
        }
      ],
      "name": "transferFrom",
      "outputs": [],
      "stateMutability": "nonpayable",
      "type": "function"
    },
    {
      "inputs": [
        {
          "internalType": "string",
          "name": "name",
          "type": "string"
        }
      ],
      "name": "valid",
      "outputs": [
        {
          "internalType": "bool",
          "name": "",
          "type": "bool"
        }
      ],
      "stateMutability": "pure",
      "type": "function"
    },
    {
      "inputs": [],
      "name": "withdraw",
      "outputs": [],
      "stateMutability": "nonpayable",
      "type": "function"
    }
  ],
  "bytecode": "0x60806040526040518061032001604052806102e68152602001620064266102e69139600c908051906020019062000038929190620002f5565b506040518060400160405280600d81526020017f3c2f746578743e3c2f7376673e00000000000000000000000000000000000000815250600d908051906020019062000086929190620002f5565b506040516200670c3803806200670c8339818101604052810190620000ac919062000542565b6040518060400160405280601281526020017f42726f636b204e616d65205365727669636500000000000000000000000000008152506040518060400160405280600381526020017f424e530000000000000000000000000000000000000000000000000000000000815250816000908051906020019062000130929190620002f5565b50806001908051906020019062000149929190620002f5565b50505033600a60006101000a81548173ffffffffffffffffffffffffffffffffffffffff021916908373ffffffffffffffffffffffffffffffffffffffff1602179055508060099080519060200190620001a5929190620002f5565b50620001f26040518060400160405280601881526020017f2573206e616d652073657276696365206465706c6f7965640000000000000000815250826200021060201b62002b5b1760201c565b62000209600b620002b660201b62002bf71760201c565b5062000690565b620002b2828260405160240162000229929190620005f0565b6040516020818303038152906040527f4b5c4277000000000000000000000000000000000000000000000000000000007bffffffffffffffffffffffffffffffffffffffffffffffffffffffff19166020820180517bffffffffffffffffffffffffffffffffffffffffffffffffffffffff8381831617835250505050620002cc60201b60201c565b5050565b6001816000016000828254019250508190555050565b60008151905060006a636f6e736f6c652e6c6f679050602083016000808483855afa5050505050565b82805462000303906200065a565b90600052602060002090601f01602090048101928262000327576000855562000373565b82601f106200034257805160ff191683800117855562000373565b8280016001018555821562000373579182015b828111156200037257825182559160200191906001019062000355565b5b50905062000382919062000386565b5090565b5b80821115620003a157600081600090555060010162000387565b5090565b6000604051905090565b600080fd5b600080fd5b600080fd5b600080fd5b6000601f19601f8301169050919050565b7f4e487b7100000000000000000000000000000000000000000000000000000000600052604160045260246000fd5b6200040e82620003c3565b810181811067ffffffffffffffff8211171562000430576200042f620003d4565b5b80604052505050565b600062000445620003a5565b905062000453828262000403565b919050565b600067ffffffffffffffff821115620004765762000475620003d4565b5b6200048182620003c3565b9050602081019050919050565b60005b83811015620004ae57808201518184015260208101905062000491565b83811115620004be576000848401525b50505050565b6000620004db620004d58462000458565b62000439565b905082815260208101848484011115620004fa57620004f9620003be565b5b620005078482856200048e565b509392505050565b600082601f830112620005275762000526620003b9565b5b815162000539848260208601620004c4565b91505092915050565b6000602082840312156200055b576200055a620003af565b5b600082015167ffffffffffffffff8111156200057c576200057b620003b4565b5b6200058a848285016200050f565b91505092915050565b600081519050919050565b600082825260208201905092915050565b6000620005bc8262000593565b620005c881856200059e565b9350620005da8185602086016200048e565b620005e581620003c3565b840191505092915050565b600060408201905081810360008301526200060c8185620005af565b90508181036020830152620006228184620005af565b90509392505050565b7f4e487b7100000000000000000000000000000000000000000000000000000000600052602260045260246000fd5b600060028204905060018216806200067357607f821691505b602082108114156200068a57620006896200062b565b5b50919050565b615d8680620006a06000396000f3fe6080604052600436106101d85760003560e01c80638f32d59b11610102578063c87b56dd11610095578063f2c298be11610064578063f2c298be14610759578063f5064fd014610775578063fb825e5f1461079e578063fe2c6198146107c9576101d8565b8063c87b56dd14610679578063e327ad61146106b6578063e985e9c5146106f3578063f0f1934614610730576101d8565b8063a22cb465116100d1578063a22cb465146105ad578063b88d4fde146105d6578063bee51f3b146105ff578063bf40fac11461063c576101d8565b80638f32d59b146104dd57806395d89b41146105085780639751e9f1146105335780639791c09714610570576101d8565b806342842e0e1161017a57806370a082311161014957806370a08231146103fa57806386e80b71146104375780638a08677d146104755780638da5cb5b146104b2576101d8565b806342842e0e146103165780634622ab031461033f578063541e771d1461037c5780636352211e146103bd576101d8565b8063095ea7b3116101b6578063095ea7b31461028257806323b872dd146102ab5780632d551432146102d45780633ccfd60b146102ff576101d8565b806301ffc9a7146101dd57806306fdde031461021a578063081812fc14610245575b600080fd5b3480156101e957600080fd5b5061020460048036038101906101ff9190613f0e565b610806565b6040516102119190613f56565b60405180910390f35b34801561022657600080fd5b5061022f6108e8565b60405161023c919061400a565b60405180910390f35b34801561025157600080fd5b5061026c60048036038101906102679190614062565b61097a565b60405161027991906140d0565b60405180910390f35b34801561028e57600080fd5b506102a960048036038101906102a49190614117565b6109ff565b005b3480156102b757600080fd5b506102d260048036038101906102cd9190614157565b610b17565b005b3480156102e057600080fd5b506102e9610b77565b6040516102f6919061400a565b60405180910390f35b34801561030b57600080fd5b50610314610c05565b005b34801561032257600080fd5b5061033d60048036038101906103389190614157565b610ccb565b005b34801561034b57600080fd5b5061036660048036038101906103619190614062565b610ceb565b604051610373919061400a565b60405180910390f35b34801561038857600080fd5b506103a3600480360381019061039e91906142df565b610d8b565b6040516103b4959493929190614328565b60405180910390f35b3480156103c957600080fd5b506103e460048036038101906103df9190614062565b61107f565b6040516103f191906140d0565b60405180910390f35b34801561040657600080fd5b50610421600480360381019061041c919061439e565b611131565b60405161042e91906143da565b60405180910390f35b34801561044357600080fd5b5061045e60048036038101906104599190614455565b6111e9565b60405161046c9291906145ae565b60405180910390f35b34801561048157600080fd5b5061049c600480360381019061049791906142df565b611653565b6040516104a991906143da565b60405180910390f35b3480156104be57600080fd5b506104c7611681565b6040516104d491906145ff565b60405180910390f35b3480156104e957600080fd5b506104f26116a7565b6040516104ff9190613f56565b60405180910390f35b34801561051457600080fd5b5061051d6116ff565b60405161052a919061400a565b60405180910390f35b34801561053f57600080fd5b5061055a6004803603810190610555919061463f565b611791565b604051610567919061400a565b60405180910390f35b34801561057c57600080fd5b5061059760048036038101906105929190614455565b611c34565b6040516105a49190613f56565b60405180910390f35b3480156105b957600080fd5b506105d460048036038101906105cf91906146cb565b611ce8565b005b3480156105e257600080fd5b506105fd60048036038101906105f891906147ac565b611cfe565b005b34801561060b57600080fd5b5061062660048036038101906106219190614455565b611d60565b60405161063391906143da565b60405180910390f35b34801561064857600080fd5b50610663600480360381019061065e9190614455565b611db8565b60405161067091906140d0565b60405180910390f35b34801561068557600080fd5b506106a0600480360381019061069b9190614062565b611dd4565b6040516106ad919061400a565b60405180910390f35b3480156106c257600080fd5b506106dd60048036038101906106d891906142df565b61214c565b6040516106ea9190613f56565b60405180910390f35b3480156106ff57600080fd5b5061071a6004803603810190610715919061482f565b612161565b6040516107279190613f56565b60405180910390f35b34801561073c57600080fd5b506107576004803603810190610752919061486f565b6121f5565b005b610773600480360381019061076e9190614455565b612374565b005b34801561078157600080fd5b5061079c600480360381019061079791906149bc565b612640565b005b3480156107aa57600080fd5b506107b36128ad565b6040516107c09190614a51565b60405180910390f35b3480156107d557600080fd5b506107f060048036038101906107eb9190614455565b612ab3565b6040516107fd91906143da565b60405180910390f35b60007f80ac58cd000000000000000000000000000000000000000000000000000000007bffffffffffffffffffffffffffffffffffffffffffffffffffffffff1916827bffffffffffffffffffffffffffffffffffffffffffffffffffffffff191614806108d157507f5b5e139f000000000000000000000000000000000000000000000000000000007bffffffffffffffffffffffffffffffffffffffffffffffffffffffff1916827bffffffffffffffffffffffffffffffffffffffffffffffffffffffff1916145b806108e157506108e082612c0d565b5b9050919050565b6060600080546108f790614aa2565b80601f016020809104026020016040519081016040528092919081815260200182805461092390614aa2565b80156109705780601f1061094557610100808354040283529160200191610970565b820191906000526020600020905b81548152906001019060200180831161095357829003601f168201915b5050505050905090565b600061098582612c77565b6109c4576040517f08c379a00000000000000000000000000000000000000000000000000000000081526004016109bb90614b46565b60405180910390fd5b6004600083815260200190815260200160002060009054906101000a900473ffffffffffffffffffffffffffffffffffffffff169050919050565b6000610a0a8261107f565b90508073ffffffffffffffffffffffffffffffffffffffff168373ffffffffffffffffffffffffffffffffffffffff161415610a7b576040517f08c379a0000000000000000000000000000000000000000000000000000000008152600401610a7290614bd8565b60405180910390fd5b8073ffffffffffffffffffffffffffffffffffffffff16610a9a612ce3565b73ffffffffffffffffffffffffffffffffffffffff161480610ac95750610ac881610ac3612ce3565b612161565b5b610b08576040517f08c379a0000000000000000000000000000000000000000000000000000000008152600401610aff90614c6a565b60405180910390fd5b610b128383612ceb565b505050565b610b28610b22612ce3565b82612da4565b610b67576040517f08c379a0000000000000000000000000000000000000000000000000000000008152600401610b5e90614cfc565b60405180910390fd5b610b72838383612e82565b505050565b60098054610b8490614aa2565b80601f0160208091040260200160405190810160405280929190818152602001828054610bb090614aa2565b8015610bfd5780601f10610bd257610100808354040283529160200191610bfd565b820191906000526020600020905b815481529060010190602001808311610be057829003601f168201915b505050505081565b610c0d6116a7565b610c1657600080fd5b600047905060003373ffffffffffffffffffffffffffffffffffffffff1682604051610c4190614d4d565b60006040518083038185875af1925050503d8060008114610c7e576040519150601f19603f3d011682016040523d82523d6000602084013e610c83565b606091505b5050905080610cc7576040517f08c379a0000000000000000000000000000000000000000000000000000000008152600401610cbe90614dae565b60405180910390fd5b5050565b610ce683838360405180602001604052806000815250611cfe565b505050565b60076020528060005260406000206000915090508054610d0a90614aa2565b80601f0160208091040260200160405190810160405280929190818152602001828054610d3690614aa2565b8015610d835780601f10610d5857610100808354040283529160200191610d83565b820191906000526020600020905b815481529060010190602001808311610d6657829003601f168201915b505050505081565b600681805160208101820180518482526020830160208501208183528095505050505050600091509050806000018054610dc490614aa2565b80601f0160208091040260200160405190810160405280929190818152602001828054610df090614aa2565b8015610e3d5780601f10610e1257610100808354040283529160200191610e3d565b820191906000526020600020905b815481529060010190602001808311610e2057829003601f168201915b505050505090806001018054610e5290614aa2565b80601f0160208091040260200160405190810160405280929190818152602001828054610e7e90614aa2565b8015610ecb5780601f10610ea057610100808354040283529160200191610ecb565b820191906000526020600020905b815481529060010190602001808311610eae57829003601f168201915b505050505090806002018054610ee090614aa2565b80601f0160208091040260200160405190810160405280929190818152602001828054610f0c90614aa2565b8015610f595780601f10610f2e57610100808354040283529160200191610f59565b820191906000526020600020905b815481529060010190602001808311610f3c57829003601f168201915b505050505090806003018054610f6e90614aa2565b80601f0160208091040260200160405190810160405280929190818152602001828054610f9a90614aa2565b8015610fe75780601f10610fbc57610100808354040283529160200191610fe7565b820191906000526020600020905b815481529060010190602001808311610fca57829003601f168201915b505050505090806004018054610ffc90614aa2565b80601f016020809104026020016040519081016040528092919081815260200182805461102890614aa2565b80156110755780601f1061104a57610100808354040283529160200191611075565b820191906000526020600020905b81548152906001019060200180831161105857829003601f168201915b5050505050905085565b6000806002600084815260200190815260200160002060009054906101000a900473ffffffffffffffffffffffffffffffffffffffff169050600073ffffffffffffffffffffffffffffffffffffffff168173ffffffffffffffffffffffffffffffffffffffff161415611128576040517f08c379a000000000000000000000000000000000000000000000000000000000815260040161111f90614e40565b60405180910390fd5b80915050919050565b60008073ffffffffffffffffffffffffffffffffffffffff168273ffffffffffffffffffffffffffffffffffffffff1614156111a2576040517f08c379a000000000000000000000000000000000000000000000000000000000815260040161119990614ed2565b60405180910390fd5b600360008373ffffffffffffffffffffffffffffffffffffffff1673ffffffffffffffffffffffffffffffffffffffff168152602001908152602001600020549050919050565b60606000806111f88585611db8565b90506000600567ffffffffffffffff811115611217576112166141b4565b5b60405190808252806020026020018201604052801561124a57816020015b60608152602001906001900390816112355790505b5090506006868660405161125f929190614f22565b9081526020016040518091039020600001805461127b90614aa2565b80601f01602080910402602001604051908101604052809291908181526020018280546112a790614aa2565b80156112f45780601f106112c9576101008083540402835291602001916112f4565b820191906000526020600020905b8154815290600101906020018083116112d757829003601f168201915b50505050508160008151811061130d5761130c614f3b565b5b60200260200101819052506006868660405161132a929190614f22565b9081526020016040518091039020600101805461134690614aa2565b80601f016020809104026020016040519081016040528092919081815260200182805461137290614aa2565b80156113bf5780601f10611394576101008083540402835291602001916113bf565b820191906000526020600020905b8154815290600101906020018083116113a257829003601f168201915b5050505050816001815181106113d8576113d7614f3b565b5b6020026020010181905250600686866040516113f5929190614f22565b9081526020016040518091039020600201805461141190614aa2565b80601f016020809104026020016040519081016040528092919081815260200182805461143d90614aa2565b801561148a5780601f1061145f5761010080835404028352916020019161148a565b820191906000526020600020905b81548152906001019060200180831161146d57829003601f168201915b5050505050816002815181106114a3576114a2614f3b565b5b6020026020010181905250600686866040516114c0929190614f22565b908152602001604051809103902060030180546114dc90614aa2565b80601f016020809104026020016040519081016040528092919081815260200182805461150890614aa2565b80156115555780601f1061152a57610100808354040283529160200191611555565b820191906000526020600020905b81548152906001019060200180831161153857829003601f168201915b50505050508160038151811061156e5761156d614f3b565b5b60200260200101819052506006868660405161158b929190614f22565b908152602001604051809103902060040180546115a790614aa2565b80601f01602080910402602001604051908101604052809291908181526020018280546115d390614aa2565b80156116205780601f106115f557610100808354040283529160200191611620565b820191906000526020600020905b81548152906001019060200180831161160357829003601f168201915b50505050508160048151811061163957611638614f3b565b5b602002602001018190525080829350935050509250929050565b6008818051602081018201805184825260208301602085012081835280955050505050506000915090505481565b600a60009054906101000a900473ffffffffffffffffffffffffffffffffffffffff1681565b6000600a60009054906101000a900473ffffffffffffffffffffffffffffffffffffffff1673ffffffffffffffffffffffffffffffffffffffff163373ffffffffffffffffffffffffffffffffffffffff1614905090565b60606001805461170e90614aa2565b80601f016020809104026020016040519081016040528092919081815260200182805461173a90614aa2565b80156117875780601f1061175c57610100808354040283529160200191611787565b820191906000526020600020905b81548152906001019060200180831161176a57829003601f168201915b5050505050905090565b6060600060048111156117a7576117a6614f6a565b5b8260048111156117ba576117b9614f6a565b5b141561187357600684846040516117d2929190614f22565b908152602001604051809103902060000180546117ee90614aa2565b80601f016020809104026020016040519081016040528092919081815260200182805461181a90614aa2565b80156118675780601f1061183c57610100808354040283529160200191611867565b820191906000526020600020905b81548152906001019060200180831161184a57829003601f168201915b50505050509050611c2d565b6001600481111561188757611886614f6a565b5b82600481111561189a57611899614f6a565b5b141561195357600684846040516118b2929190614f22565b908152602001604051809103902060010180546118ce90614aa2565b80601f01602080910402602001604051908101604052809291908181526020018280546118fa90614aa2565b80156119475780601f1061191c57610100808354040283529160200191611947565b820191906000526020600020905b81548152906001019060200180831161192a57829003601f168201915b50505050509050611c2d565b6002600481111561196757611966614f6a565b5b82600481111561197a57611979614f6a565b5b1415611a335760068484604051611992929190614f22565b908152602001604051809103902060020180546119ae90614aa2565b80601f01602080910402602001604051908101604052809291908181526020018280546119da90614aa2565b8015611a275780601f106119fc57610100808354040283529160200191611a27565b820191906000526020600020905b815481529060010190602001808311611a0a57829003601f168201915b50505050509050611c2d565b60036004811115611a4757611a46614f6a565b5b826004811115611a5a57611a59614f6a565b5b1415611b135760068484604051611a72929190614f22565b90815260200160405180910390206003018054611a8e90614aa2565b80601f0160208091040260200160405190810160405280929190818152602001828054611aba90614aa2565b8015611b075780601f10611adc57610100808354040283529160200191611b07565b820191906000526020600020905b815481529060010190602001808311611aea57829003601f168201915b50505050509050611c2d565b600480811115611b2657611b25614f6a565b5b826004811115611b3957611b38614f6a565b5b1415611bf25760068484604051611b51929190614f22565b90815260200160405180910390206004018054611b6d90614aa2565b80601f0160208091040260200160405190810160405280929190818152602001828054611b9990614aa2565b8015611be65780601f10611bbb57610100808354040283529160200191611be6565b820191906000526020600020905b815481529060010190602001808311611bc957829003601f168201915b50505050509050611c2d565b6040517f08c379a0000000000000000000000000000000000000000000000000000000008152600401611c2490614fe5565b60405180910390fd5b9392505050565b60006003611c8584848080601f016020809104026020016040519081016040528093929190818152602001838380828437600081840152601f19601f820116905080830192505050505050506130e9565b10158015611ce05750600c611cdd84848080601f016020809104026020016040519081016040528093929190818152602001838380828437600081840152601f19601f820116905080830192505050505050506130e9565b11155b905092915050565b611cfa611cf3612ce3565b838361329e565b5050565b611d0f611d09612ce3565b83612da4565b611d4e576040517f08c379a0000000000000000000000000000000000000000000000000000000008152600401611d4590614cfc565b60405180910390fd5b611d5a8484848461340b565b50505050565b60008060088484604051611d75929190614f22565b9081526020016040518091039020541415611d8f57600080fd5b60088383604051611da1929190614f22565b908152602001604051809103902054905092915050565b6000611dcc611dc78484611d60565b61107f565b905092915050565b6060611e7a600760008481526020019081526020016000208054611df790614aa2565b80601f0160208091040260200160405190810160405280929190818152602001828054611e2390614aa2565b8015611e705780601f10611e4557610100808354040283529160200191611e70565b820191906000526020600020905b815481529060010190602001808311611e5357829003601f168201915b505050505061214c565b611eb9576040517f08c379a0000000000000000000000000000000000000000000000000000000008152600401611eb090615051565b60405180910390fd5b6000600760008481526020019081526020016000206009604051602001611ee1929190615151565b60405160208183030381529060405290506000611efd826130e9565b90506000611f0a82613467565b90506060611fd2600660076000898152602001908152602001600020604051611f339190615180565b90815260200160405180910390206000018054611f4f90614aa2565b80601f0160208091040260200160405190810160405280929190818152602001828054611f7b90614aa2565b8015611fc85780601f10611f9d57610100808354040283529160200191611fc8565b820191906000526020600020905b815481529060010190602001808311611fab57829003601f168201915b505050505061214c565b1561209a57600660076000888152602001908152602001600020604051611ff99190615180565b9081526020016040518091039020600001805461201590614aa2565b80601f016020809104026020016040519081016040528092919081815260200182805461204190614aa2565b801561208e5780601f106120635761010080835404028352916020019161208e565b820191906000526020600020905b81548152906001019060200180831161207157829003601f168201915b505050505090506120f0565b6000600c85600d6040516020016120b3939291906151c8565b60405160208183030381529060405290506120cd816135c8565b6040516020016120dd9190615245565b6040516020818303038152906040529150505b600061211e85838560405160200161210a939291906153e3565b6040516020818303038152906040526135c8565b905080604051602001612131919061548c565b60405160208183030381529060405295505050505050919050565b600080612158836130e9565b14159050919050565b6000600560008473ffffffffffffffffffffffffffffffffffffffff1673ffffffffffffffffffffffffffffffffffffffff16815260200190815260200160002060008373ffffffffffffffffffffffffffffffffffffffff1673ffffffffffffffffffffffffffffffffffffffff16815260200190815260200160002060009054906101000a900460ff16905092915050565b6121ff8b8b611db8565b73ffffffffffffffffffffffffffffffffffffffff163373ffffffffffffffffffffffffffffffffffffffff1614612263576040517f82b4290000000000000000000000000000000000000000000000000000000000815260040160405180910390fd5b8860068c8c604051612276929190614f22565b9081526020016040518091039020600001908051906020019061229a929190613d79565b50878760068d8d6040516122af929190614f22565b908152602001604051809103902060010191906122cd929190613dff565b50858560068d8d6040516122e2929190614f22565b90815260200160405180910390206002019190612300929190613dff565b50838360068d8d604051612315929190614f22565b90815260200160405180910390206003019190612333929190613dff565b50818160068d8d604051612348929190614f22565b90815260200160405180910390206004019190612366929190613dff565b505050505050505050505050565b600060088383604051612388929190614f22565b908152602001604051809103902054146123ce576040517f3a81d6fc00000000000000000000000000000000000000000000000000000000815260040160405180910390fd5b6123d88282611c34565b61241b5781816040517f7f19f48d0000000000000000000000000000000000000000000000000000000081526004016124129291906154db565b60405180910390fd5b60003073ffffffffffffffffffffffffffffffffffffffff1663fe2c619884846040518363ffffffff1660e01b81526004016124589291906154db565b602060405180830381865afa158015612475573d6000803e3d6000fd5b505050506040513d601f19601f820116820180604052508101906124999190615514565b9050803410156124de576040517f08c379a00000000000000000000000000000000000000000000000000000000081526004016124d59061558d565b60405180910390fd5b60006124ea600b613760565b90506125de604051806060016040528060318152602001615ce06031913985858080601f016020809104026020016040519081016040528093929190818152602001838380828437600081840152601f19601f820116905080830192505050505050506009805461255a90614aa2565b80601f016020809104026020016040519081016040528092919081815260200182805461258690614aa2565b80156125d35780601f106125a8576101008083540402835291602001916125d3565b820191906000526020600020905b8154815290600101906020018083116125b657829003601f168201915b50505050508461376e565b6125e83382613810565b838360076000848152602001908152602001600020919061260a929190613dff565b50806008858560405161261e929190614f22565b90815260200160405180910390208190555061263a600b612bf7565b50505050565b61264a8585611db8565b73ffffffffffffffffffffffffffffffffffffffff163373ffffffffffffffffffffffffffffffffffffffff16146126ae576040517f82b4290000000000000000000000000000000000000000000000000000000000815260040160405180910390fd5b600060048111156126c2576126c1614f6a565b5b8160048111156126d5576126d4614f6a565b5b1415612713578282600687876040516126ef929190614f22565b9081526020016040518091039020600001919061270d929190613dff565b506128a6565b6001600481111561272757612726614f6a565b5b81600481111561273a57612739614f6a565b5b141561277857828260068787604051612754929190614f22565b90815260200160405180910390206001019190612772929190613dff565b506128a5565b6002600481111561278c5761278b614f6a565b5b81600481111561279f5761279e614f6a565b5b14156127dd578282600687876040516127b9929190614f22565b908152602001604051809103902060020191906127d7929190613dff565b506128a4565b600360048111156127f1576127f0614f6a565b5b81600481111561280457612803614f6a565b5b14156128425782826006878760405161281e929190614f22565b9081526020016040518091039020600301919061283c929190613dff565b506128a3565b60048081111561285557612854614f6a565b5b81600481111561286857612867614f6a565b5b14156128a257828260068787604051612882929190614f22565b908152602001604051809103902060040191906128a0929190613dff565b505b5b5b5b5b5050505050565b60606128ed6040518060400160405280601f81526020017f47657474696e6720616c6c206e616d65732066726f6d20636f6e74726163740081525061382e565b600060016128fb600b613760565b61290591906155dc565b67ffffffffffffffff81111561291e5761291d6141b4565b5b60405190808252806020026020018201604052801561295157816020015b606081526020019060019003908161293c5790505b5090506000600190505b612965600b613760565b811015612aab5760076000828152602001908152602001600020805461298a90614aa2565b80601f01602080910402602001604051908101604052809291908181526020018280546129b690614aa2565b8015612a035780601f106129d857610100808354040283529160200191612a03565b820191906000526020600020905b8154815290600101906020018083116129e657829003601f168201915b505050505082600183612a1691906155dc565b81518110612a2757612a26614f3b565b5b6020026020010181905250612a986040518060400160405280601781526020017f4e616d6520666f7220746f6b656e2025642069732025730000000000000000008152508284600185612a7a91906155dc565b81518110612a8b57612a8a614f3b565b5b60200260200101516138c7565b8080612aa390615610565b91505061295b565b508091505090565b600080612b0384848080601f016020809104026020016040519081016040528093929190818152602001838380828437600081840152601f19601f820116905080830192505050505050506130e9565b905060008111612b1257600080fd5b6004811415612b2d5768056bc75e2d63100000915050612b55565b6006811415612b48576802b5e3af16b1880000915050612b55565b674563918244f400009150505b92915050565b612bf38282604051602401612b71929190615659565b6040516020818303038152906040527f4b5c4277000000000000000000000000000000000000000000000000000000007bffffffffffffffffffffffffffffffffffffffffffffffffffffffff19166020820180517bffffffffffffffffffffffffffffffffffffffffffffffffffffffff8381831617835250505050613966565b5050565b6001816000016000828254019250508190555050565b60007f01ffc9a7000000000000000000000000000000000000000000000000000000007bffffffffffffffffffffffffffffffffffffffffffffffffffffffff1916827bffffffffffffffffffffffffffffffffffffffffffffffffffffffff1916149050919050565b60008073ffffffffffffffffffffffffffffffffffffffff166002600084815260200190815260200160002060009054906101000a900473ffffffffffffffffffffffffffffffffffffffff1673ffffffffffffffffffffffffffffffffffffffff1614159050919050565b600033905090565b816004600083815260200190815260200160002060006101000a81548173ffffffffffffffffffffffffffffffffffffffff021916908373ffffffffffffffffffffffffffffffffffffffff160217905550808273ffffffffffffffffffffffffffffffffffffffff16612d5e8361107f565b73ffffffffffffffffffffffffffffffffffffffff167f8c5be1e5ebec7d5bd14f71427d1e84f3dd0314c0f7b2291e5b200ac8c7c3b92560405160405180910390a45050565b6000612daf82612c77565b612dee576040517f08c379a0000000000000000000000000000000000000000000000000000000008152600401612de590615702565b60405180910390fd5b6000612df98361107f565b90508073ffffffffffffffffffffffffffffffffffffffff168473ffffffffffffffffffffffffffffffffffffffff161480612e6857508373ffffffffffffffffffffffffffffffffffffffff16612e508461097a565b73ffffffffffffffffffffffffffffffffffffffff16145b80612e795750612e788185612161565b5b91505092915050565b8273ffffffffffffffffffffffffffffffffffffffff16612ea28261107f565b73ffffffffffffffffffffffffffffffffffffffff1614612ef8576040517f08c379a0000000000000000000000000000000000000000000000000000000008152600401612eef90615794565b60405180910390fd5b600073ffffffffffffffffffffffffffffffffffffffff168273ffffffffffffffffffffffffffffffffffffffff161415612f68576040517f08c379a0000000000000000000000000000000000000000000000000000000008152600401612f5f90615826565b60405180910390fd5b612f7383838361398f565b612f7e600082612ceb565b6001600360008573ffffffffffffffffffffffffffffffffffffffff1673ffffffffffffffffffffffffffffffffffffffff1681526020019081526020016000206000828254612fce91906155dc565b925050819055506001600360008473ffffffffffffffffffffffffffffffffffffffff1673ffffffffffffffffffffffffffffffffffffffff16815260200190815260200160002060008282546130259190615846565b92505081905550816002600083815260200190815260200160002060006101000a81548173ffffffffffffffffffffffffffffffffffffffff021916908373ffffffffffffffffffffffffffffffffffffffff160217905550808273ffffffffffffffffffffffffffffffffffffffff168473ffffffffffffffffffffffffffffffffffffffff167fddf252ad1be2c89b69c2b068fc378daa952ba7f163c4a11628f55a4df523b3ef60405160405180910390a46130e4838383613994565b505050565b60008060008084519050600092505b8082101561329357600085838151811061311557613114614f3b565b5b602001015160f81c60f81b9050608060f81b817effffffffffffffffffffffffffffffffffffffffffffffffffffffffffffff191610156131645760018361315d9190615846565b925061327f565b60e060f81b817effffffffffffffffffffffffffffffffffffffffffffffffffffffffffffff191610156131a65760028361319f9190615846565b925061327e565b60f060f81b817effffffffffffffffffffffffffffffffffffffffffffffffffffffffffffff191610156131e8576003836131e19190615846565b925061327d565b60f8801b817effffffffffffffffffffffffffffffffffffffffffffffffffffffffffffff19161015613229576004836132229190615846565b925061327c565b60fc60f81b817effffffffffffffffffffffffffffffffffffffffffffffffffffffffffffff1916101561326b576005836132649190615846565b925061327b565b6006836132789190615846565b92505b5b5b5b5b50828061328b90615610565b9350506130f8565b829350505050919050565b8173ffffffffffffffffffffffffffffffffffffffff168373ffffffffffffffffffffffffffffffffffffffff16141561330d576040517f08c379a0000000000000000000000000000000000000000000000000000000008152600401613304906158e8565b60405180910390fd5b80600560008573ffffffffffffffffffffffffffffffffffffffff1673ffffffffffffffffffffffffffffffffffffffff16815260200190815260200160002060008473ffffffffffffffffffffffffffffffffffffffff1673ffffffffffffffffffffffffffffffffffffffff16815260200190815260200160002060006101000a81548160ff0219169083151502179055508173ffffffffffffffffffffffffffffffffffffffff168373ffffffffffffffffffffffffffffffffffffffff167f17307eab39ab6107e8899845ad3d59bd9653f200f220920489ca2b5937696c31836040516133fe9190613f56565b60405180910390a3505050565b613416848484612e82565b61342284848484613999565b613461576040517f08c379a00000000000000000000000000000000000000000000000000000000081526004016134589061597a565b60405180910390fd5b50505050565b606060008214156134af576040518060400160405280600181526020017f300000000000000000000000000000000000000000000000000000000000000081525090506135c3565b600082905060005b600082146134e15780806134ca90615610565b915050600a826134da91906159c9565b91506134b7565b60008167ffffffffffffffff8111156134fd576134fc6141b4565b5b6040519080825280601f01601f19166020018201604052801561352f5781602001600182028036833780820191505090505b5090505b600085146135bc5760018261354891906155dc565b9150600a8561355791906159fa565b60306135639190615846565b60f81b81838151811061357957613578614f3b565b5b60200101907effffffffffffffffffffffffffffffffffffffffffffffffffffffffffffff1916908160001a905350600a856135b591906159c9565b9450613533565b8093505050505b919050565b606060008251905060008114156135f1576040518060200160405280600081525091505061375b565b600060036002836136029190615846565b61360c91906159c9565b60046136189190615a2b565b905060006020826136299190615846565b67ffffffffffffffff811115613642576136416141b4565b5b6040519080825280601f01601f1916602001820160405280156136745781602001600182028036833780820191505090505b5090506000604051806060016040528060408152602001615d11604091399050600181016020830160005b868110156137185760038101905062ffffff818a015116603f8160121c168401518060081b905060ff603f83600c1c1686015116810190508060081b905060ff603f8360061c1686015116810190508060081b905060ff603f831686015116810190508060e01b9050808452600484019350505061369f565b50600386066001811461373257600281146137425761374d565b613d3d60f01b600283035261374d565b603d60f81b60018303525b508484525050819450505050505b919050565b600081600001549050919050565b61380a848484846040516024016137889493929190615a85565b6040516020818303038152906040527f9fd009f5000000000000000000000000000000000000000000000000000000007bffffffffffffffffffffffffffffffffffffffffffffffffffffffff19166020820180517bffffffffffffffffffffffffffffffffffffffffffffffffffffffff8381831617835250505050613966565b50505050565b61382a828260405180602001604052806000815250613b21565b5050565b6138c481604051602401613842919061400a565b6040516020818303038152906040527f41304fac000000000000000000000000000000000000000000000000000000007bffffffffffffffffffffffffffffffffffffffffffffffffffffffff19166020820180517bffffffffffffffffffffffffffffffffffffffffffffffffffffffff8381831617835250505050613966565b50565b6139618383836040516024016138df93929190615adf565b6040516020818303038152906040527fa3f5c739000000000000000000000000000000000000000000000000000000007bffffffffffffffffffffffffffffffffffffffffffffffffffffffff19166020820180517bffffffffffffffffffffffffffffffffffffffffffffffffffffffff8381831617835250505050613966565b505050565b60008151905060006a636f6e736f6c652e6c6f679050602083016000808483855afa5050505050565b505050565b505050565b60006139ba8473ffffffffffffffffffffffffffffffffffffffff16613b7c565b15613b14578373ffffffffffffffffffffffffffffffffffffffff1663150b7a026139e3612ce3565b8786866040518563ffffffff1660e01b8152600401613a059493929190615b79565b6020604051808303816000875af1925050508015613a4157506040513d601f19601f82011682018060405250810190613a3e9190615bda565b60015b613ac4573d8060008114613a71576040519150601f19603f3d011682016040523d82523d6000602084013e613a76565b606091505b50600081511415613abc576040517f08c379a0000000000000000000000000000000000000000000000000000000008152600401613ab39061597a565b60405180910390fd5b805181602001fd5b63150b7a0260e01b7bffffffffffffffffffffffffffffffffffffffffffffffffffffffff1916817bffffffffffffffffffffffffffffffffffffffffffffffffffffffff191614915050613b19565b600190505b949350505050565b613b2b8383613b9f565b613b386000848484613999565b613b77576040517f08c379a0000000000000000000000000000000000000000000000000000000008152600401613b6e9061597a565b60405180910390fd5b505050565b6000808273ffffffffffffffffffffffffffffffffffffffff163b119050919050565b600073ffffffffffffffffffffffffffffffffffffffff168273ffffffffffffffffffffffffffffffffffffffff161415613c0f576040517f08c379a0000000000000000000000000000000000000000000000000000000008152600401613c0690615c53565b60405180910390fd5b613c1881612c77565b15613c58576040517f08c379a0000000000000000000000000000000000000000000000000000000008152600401613c4f90615cbf565b60405180910390fd5b613c646000838361398f565b6001600360008473ffffffffffffffffffffffffffffffffffffffff1673ffffffffffffffffffffffffffffffffffffffff1681526020019081526020016000206000828254613cb49190615846565b92505081905550816002600083815260200190815260200160002060006101000a81548173ffffffffffffffffffffffffffffffffffffffff021916908373ffffffffffffffffffffffffffffffffffffffff160217905550808273ffffffffffffffffffffffffffffffffffffffff16600073ffffffffffffffffffffffffffffffffffffffff167fddf252ad1be2c89b69c2b068fc378daa952ba7f163c4a11628f55a4df523b3ef60405160405180910390a4613d7560008383613994565b5050565b828054613d8590614aa2565b90600052602060002090601f016020900481019282613da75760008555613dee565b82601f10613dc057805160ff1916838001178555613dee565b82800160010185558215613dee579182015b82811115613ded578251825591602001919060010190613dd2565b5b509050613dfb9190613e85565b5090565b828054613e0b90614aa2565b90600052602060002090601f016020900481019282613e2d5760008555613e74565b82601f10613e4657803560ff1916838001178555613e74565b82800160010185558215613e74579182015b82811115613e73578235825591602001919060010190613e58565b5b509050613e819190613e85565b5090565b5b80821115613e9e576000816000905550600101613e86565b5090565b6000604051905090565b600080fd5b600080fd5b60007fffffffff0000000000000000000000000000000000000000000000000000000082169050919050565b613eeb81613eb6565b8114613ef657600080fd5b50565b600081359050613f0881613ee2565b92915050565b600060208284031215613f2457613f23613eac565b5b6000613f3284828501613ef9565b91505092915050565b60008115159050919050565b613f5081613f3b565b82525050565b6000602082019050613f6b6000830184613f47565b92915050565b600081519050919050565b600082825260208201905092915050565b60005b83811015613fab578082015181840152602081019050613f90565b83811115613fba576000848401525b50505050565b6000601f19601f8301169050919050565b6000613fdc82613f71565b613fe68185613f7c565b9350613ff6818560208601613f8d565b613fff81613fc0565b840191505092915050565b600060208201905081810360008301526140248184613fd1565b905092915050565b6000819050919050565b61403f8161402c565b811461404a57600080fd5b50565b60008135905061405c81614036565b92915050565b60006020828403121561407857614077613eac565b5b60006140868482850161404d565b91505092915050565b600073ffffffffffffffffffffffffffffffffffffffff82169050919050565b60006140ba8261408f565b9050919050565b6140ca816140af565b82525050565b60006020820190506140e560008301846140c1565b92915050565b6140f4816140af565b81146140ff57600080fd5b50565b600081359050614111816140eb565b92915050565b6000806040838503121561412e5761412d613eac565b5b600061413c85828601614102565b925050602061414d8582860161404d565b9150509250929050565b6000806000606084860312156141705761416f613eac565b5b600061417e86828701614102565b935050602061418f86828701614102565b92505060406141a08682870161404d565b9150509250925092565b600080fd5b600080fd5b7f4e487b7100000000000000000000000000000000000000000000000000000000600052604160045260246000fd5b6141ec82613fc0565b810181811067ffffffffffffffff8211171561420b5761420a6141b4565b5b80604052505050565b600061421e613ea2565b905061422a82826141e3565b919050565b600067ffffffffffffffff82111561424a576142496141b4565b5b61425382613fc0565b9050602081019050919050565b82818337600083830152505050565b600061428261427d8461422f565b614214565b90508281526020810184848401111561429e5761429d6141af565b5b6142a9848285614260565b509392505050565b600082601f8301126142c6576142c56141aa565b5b81356142d684826020860161426f565b91505092915050565b6000602082840312156142f5576142f4613eac565b5b600082013567ffffffffffffffff81111561431357614312613eb1565b5b61431f848285016142b1565b91505092915050565b600060a08201905081810360008301526143428188613fd1565b905081810360208301526143568187613fd1565b9050818103604083015261436a8186613fd1565b9050818103606083015261437e8185613fd1565b905081810360808301526143928184613fd1565b90509695505050505050565b6000602082840312156143b4576143b3613eac565b5b60006143c284828501614102565b91505092915050565b6143d48161402c565b82525050565b60006020820190506143ef60008301846143cb565b92915050565b600080fd5b600080fd5b60008083601f840112614415576144146141aa565b5b8235905067ffffffffffffffff811115614432576144316143f5565b5b60208301915083600182028301111561444e5761444d6143fa565b5b9250929050565b6000806020838503121561446c5761446b613eac565b5b600083013567ffffffffffffffff81111561448a57614489613eb1565b5b614496858286016143ff565b92509250509250929050565b600081519050919050565b600082825260208201905092915050565b6000819050602082019050919050565b600082825260208201905092915050565b60006144ea82613f71565b6144f481856144ce565b9350614504818560208601613f8d565b61450d81613fc0565b840191505092915050565b600061452483836144df565b905092915050565b6000602082019050919050565b6000614544826144a2565b61454e81856144ad565b935083602082028501614560856144be565b8060005b8581101561459c578484038952815161457d8582614518565b94506145888361452c565b925060208a01995050600181019050614564565b50829750879550505050505092915050565b600060408201905081810360008301526145c88185614539565b90506145d760208301846140c1565b9392505050565b60006145e98261408f565b9050919050565b6145f9816145de565b82525050565b600060208201905061461460008301846145f0565b92915050565b6005811061462757600080fd5b50565b6000813590506146398161461a565b92915050565b60008060006040848603121561465857614657613eac565b5b600084013567ffffffffffffffff81111561467657614675613eb1565b5b614682868287016143ff565b935093505060206146958682870161462a565b9150509250925092565b6146a881613f3b565b81146146b357600080fd5b50565b6000813590506146c58161469f565b92915050565b600080604083850312156146e2576146e1613eac565b5b60006146f085828601614102565b9250506020614701858286016146b6565b9150509250929050565b600067ffffffffffffffff821115614726576147256141b4565b5b61472f82613fc0565b9050602081019050919050565b600061474f61474a8461470b565b614214565b90508281526020810184848401111561476b5761476a6141af565b5b614776848285614260565b509392505050565b600082601f830112614793576147926141aa565b5b81356147a384826020860161473c565b91505092915050565b600080600080608085870312156147c6576147c5613eac565b5b60006147d487828801614102565b94505060206147e587828801614102565b93505060406147f68782880161404d565b925050606085013567ffffffffffffffff81111561481757614816613eb1565b5b6148238782880161477e565b91505092959194509250565b6000806040838503121561484657614845613eac565b5b600061485485828601614102565b925050602061486585828601614102565b9150509250929050565b600080600080600080600080600080600060c08c8e03121561489457614893613eac565b5b60008c013567ffffffffffffffff8111156148b2576148b1613eb1565b5b6148be8e828f016143ff565b9b509b505060208c013567ffffffffffffffff8111156148e1576148e0613eb1565b5b6148ed8e828f016142b1565b99505060408c013567ffffffffffffffff81111561490e5761490d613eb1565b5b61491a8e828f016143ff565b985098505060608c013567ffffffffffffffff81111561493d5761493c613eb1565b5b6149498e828f016143ff565b965096505060808c013567ffffffffffffffff81111561496c5761496b613eb1565b5b6149788e828f016143ff565b945094505060a08c013567ffffffffffffffff81111561499b5761499a613eb1565b5b6149a78e828f016143ff565b92509250509295989b509295989b9093969950565b6000806000806000606086880312156149d8576149d7613eac565b5b600086013567ffffffffffffffff8111156149f6576149f5613eb1565b5b614a02888289016143ff565b9550955050602086013567ffffffffffffffff811115614a2557614a24613eb1565b5b614a31888289016143ff565b93509350506040614a448882890161462a565b9150509295509295909350565b60006020820190508181036000830152614a6b8184614539565b905092915050565b7f4e487b7100000000000000000000000000000000000000000000000000000000600052602260045260246000fd5b60006002820490506001821680614aba57607f821691505b60208210811415614ace57614acd614a73565b5b50919050565b7f4552433732313a20617070726f76656420717565727920666f72206e6f6e657860008201527f697374656e7420746f6b656e0000000000000000000000000000000000000000602082015250565b6000614b30602c83613f7c565b9150614b3b82614ad4565b604082019050919050565b60006020820190508181036000830152614b5f81614b23565b9050919050565b7f4552433732313a20617070726f76616c20746f2063757272656e74206f776e6560008201527f7200000000000000000000000000000000000000000000000000000000000000602082015250565b6000614bc2602183613f7c565b9150614bcd82614b66565b604082019050919050565b60006020820190508181036000830152614bf181614bb5565b9050919050565b7f4552433732313a20617070726f76652063616c6c6572206973206e6f74206f7760008201527f6e6572206e6f7220617070726f76656420666f7220616c6c0000000000000000602082015250565b6000614c54603883613f7c565b9150614c5f82614bf8565b604082019050919050565b60006020820190508181036000830152614c8381614c47565b9050919050565b7f4552433732313a207472616e736665722063616c6c6572206973206e6f74206f60008201527f776e6572206e6f7220617070726f766564000000000000000000000000000000602082015250565b6000614ce6603183613f7c565b9150614cf182614c8a565b604082019050919050565b60006020820190508181036000830152614d1581614cd9565b9050919050565b600081905092915050565b50565b6000614d37600083614d1c565b9150614d4282614d27565b600082019050919050565b6000614d5882614d2a565b9150819050919050565b7f4661696c656420746f207769746864726177204d617469630000000000000000600082015250565b6000614d98601883613f7c565b9150614da382614d62565b602082019050919050565b60006020820190508181036000830152614dc781614d8b565b9050919050565b7f4552433732313a206f776e657220717565727920666f72206e6f6e657869737460008201527f656e7420746f6b656e0000000000000000000000000000000000000000000000602082015250565b6000614e2a602983613f7c565b9150614e3582614dce565b604082019050919050565b60006020820190508181036000830152614e5981614e1d565b9050919050565b7f4552433732313a2062616c616e636520717565727920666f7220746865207a6560008201527f726f206164647265737300000000000000000000000000000000000000000000602082015250565b6000614ebc602a83613f7c565b9150614ec782614e60565b604082019050919050565b60006020820190508181036000830152614eeb81614eaf565b9050919050565b600081905092915050565b6000614f098385614ef2565b9350614f16838584614260565b82840190509392505050565b6000614f2f828486614efd565b91508190509392505050565b7f4e487b7100000000000000000000000000000000000000000000000000000000600052603260045260246000fd5b7f4e487b7100000000000000000000000000000000000000000000000000000000600052602160045260246000fd5b7f5265636f7264206e6f7420666f756e6400000000000000000000000000000000600082015250565b6000614fcf601083613f7c565b9150614fda82614f99565b602082019050919050565b60006020820190508181036000830152614ffe81614fc2565b9050919050565b7f4164647265737320756e6b6e6f776e0000000000000000000000000000000000600082015250565b600061503b600f83613f7c565b915061504682615005565b602082019050919050565b6000602082019050818103600083015261506a8161502e565b9050919050565b60008190508160005260206000209050919050565b6000815461509381614aa2565b61509d8186614ef2565b945060018216600081146150b857600181146150c9576150fc565b60ff198316865281860193506150fc565b6150d285615071565b60005b838110156150f4578154818901526001820191506020810190506150d5565b838801955050505b50505092915050565b7f2e00000000000000000000000000000000000000000000000000000000000000600082015250565b600061513b600183614ef2565b915061514682615105565b600182019050919050565b600061515d8285615086565b91506151688261512e565b91506151748284615086565b91508190509392505050565b600061518c8284615086565b915081905092915050565b60006151a282613f71565b6151ac8185614ef2565b93506151bc818560208601613f8d565b80840191505092915050565b60006151d48286615086565b91506151e08285615197565b91506151ec8284615086565b9150819050949350505050565b7f646174613a696d6167652f7376672b786d6c3b6261736536342c000000000000600082015250565b600061522f601a83614ef2565b915061523a826151f9565b601a82019050919050565b600061525082615222565b915061525c8284615197565b915081905092915050565b7f7b226e616d65223a202200000000000000000000000000000000000000000000600082015250565b600061529d600a83614ef2565b91506152a882615267565b600a82019050919050565b7f222c20226465736372697074696f6e223a20224120646f6d61696e206f6e207460008201527f68652042524f434b206e616d652073657276696365222c2022696d616765223a60208201527f2022000000000000000000000000000000000000000000000000000000000000604082015250565b6000615335604283614ef2565b9150615340826152b3565b604282019050919050565b7f222c226c656e677468223a220000000000000000000000000000000000000000600082015250565b6000615381600c83614ef2565b915061538c8261534b565b600c82019050919050565b7f227d000000000000000000000000000000000000000000000000000000000000600082015250565b60006153cd600283614ef2565b91506153d882615397565b600282019050919050565b60006153ee82615290565b91506153fa8286615197565b915061540582615328565b91506154118285615197565b915061541c82615374565b91506154288284615197565b9150615433826153c0565b9150819050949350505050565b7f646174613a6170706c69636174696f6e2f6a736f6e3b6261736536342c000000600082015250565b6000615476601d83614ef2565b915061548182615440565b601d82019050919050565b600061549782615469565b91506154a38284615197565b915081905092915050565b60006154ba8385613f7c565b93506154c7838584614260565b6154d083613fc0565b840190509392505050565b600060208201905081810360008301526154f68184866154ae565b90509392505050565b60008151905061550e81614036565b92915050565b60006020828403121561552a57615529613eac565b5b6000615538848285016154ff565b91505092915050565b7f4e6f7420656e6f756768204d6174696320706169640000000000000000000000600082015250565b6000615577601583613f7c565b915061558282615541565b602082019050919050565b600060208201905081810360008301526155a68161556a565b9050919050565b7f4e487b7100000000000000000000000000000000000000000000000000000000600052601160045260246000fd5b60006155e78261402c565b91506155f28361402c565b925082821015615605576156046155ad565b5b828203905092915050565b600061561b8261402c565b91507fffffffffffffffffffffffffffffffffffffffffffffffffffffffffffffffff82141561564e5761564d6155ad565b5b600182019050919050565b600060408201905081810360008301526156738185613fd1565b905081810360208301526156878184613fd1565b90509392505050565b7f4552433732313a206f70657261746f7220717565727920666f72206e6f6e657860008201527f697374656e7420746f6b656e0000000000000000000000000000000000000000602082015250565b60006156ec602c83613f7c565b91506156f782615690565b604082019050919050565b6000602082019050818103600083015261571b816156df565b9050919050565b7f4552433732313a207472616e736665722066726f6d20696e636f72726563742060008201527f6f776e6572000000000000000000000000000000000000000000000000000000602082015250565b600061577e602583613f7c565b915061578982615722565b604082019050919050565b600060208201905081810360008301526157ad81615771565b9050919050565b7f4552433732313a207472616e7366657220746f20746865207a65726f2061646460008201527f7265737300000000000000000000000000000000000000000000000000000000602082015250565b6000615810602483613f7c565b915061581b826157b4565b604082019050919050565b6000602082019050818103600083015261583f81615803565b9050919050565b60006158518261402c565b915061585c8361402c565b9250827fffffffffffffffffffffffffffffffffffffffffffffffffffffffffffffffff03821115615891576158906155ad565b5b828201905092915050565b7f4552433732313a20617070726f766520746f2063616c6c657200000000000000600082015250565b60006158d2601983613f7c565b91506158dd8261589c565b602082019050919050565b60006020820190508181036000830152615901816158c5565b9050919050565b7f4552433732313a207472616e7366657220746f206e6f6e20455243373231526560008201527f63656976657220696d706c656d656e7465720000000000000000000000000000602082015250565b6000615964603283613f7c565b915061596f82615908565b604082019050919050565b6000602082019050818103600083015261599381615957565b9050919050565b7f4e487b7100000000000000000000000000000000000000000000000000000000600052601260045260246000fd5b60006159d48261402c565b91506159df8361402c565b9250826159ef576159ee61599a565b5b828204905092915050565b6000615a058261402c565b9150615a108361402c565b925082615a2057615a1f61599a565b5b828206905092915050565b6000615a368261402c565b9150615a418361402c565b9250817fffffffffffffffffffffffffffffffffffffffffffffffffffffffffffffffff0483118215151615615a7a57615a796155ad565b5b828202905092915050565b60006080820190508181036000830152615a9f8187613fd1565b90508181036020830152615ab38186613fd1565b90508181036040830152615ac78185613fd1565b9050615ad660608301846143cb565b95945050505050565b60006060820190508181036000830152615af98186613fd1565b9050615b0860208301856143cb565b8181036040830152615b1a8184613fd1565b9050949350505050565b600081519050919050565b600082825260208201905092915050565b6000615b4b82615b24565b615b558185615b2f565b9350615b65818560208601613f8d565b615b6e81613fc0565b840191505092915050565b6000608082019050615b8e60008301876140c1565b615b9b60208301866140c1565b615ba860408301856143cb565b8181036060830152615bba8184615b40565b905095945050505050565b600081519050615bd481613ee2565b92915050565b600060208284031215615bf057615bef613eac565b5b6000615bfe84828501615bc5565b91505092915050565b7f4552433732313a206d696e7420746f20746865207a65726f2061646472657373600082015250565b6000615c3d602083613f7c565b9150615c4882615c07565b602082019050919050565b60006020820190508181036000830152615c6c81615c30565b9050919050565b7f4552433732313a20746f6b656e20616c7265616479206d696e74656400000000600082015250565b6000615ca9601c83613f7c565b9150615cb482615c73565b602082019050919050565b60006020820190508181036000830152615cd881615c9c565b905091905056fe5265676973746572696e672025732e2573206f6e2074686520636f6e7472616374207769746820746f6b656e49442025644142434445464748494a4b4c4d4e4f505152535455565758595a6162636465666768696a6b6c6d6e6f707172737475767778797a303132333435363738392b2fa26469706673582212206df2004bb842fcf120163d7c9f6a84581a91424d7b6a0e512deb9f47e0b9be5964736f6c634300080a00333c73766720786d6c6e733d22687474703a2f2f7777772e77332e6f72672f323030302f737667222077696474683d2232373022206865696768743d22323730222066696c6c3d226e6f6e65223e203c706174682066696c6c3d2275726c282342292220643d224d302030683237307632373048307a222f3e3c646566733e3c66696c7465722069643d22412220636f6c6f722d696e746572706f6c6174696f6e2d66696c746572733d2273524742222066696c746572556e6974733d227573657253706163654f6e55736522206865696768743d22323730222077696474683d22323730223e3c666544726f70536861646f772064783d2230222064793d22312220737464446576696174696f6e3d22322220666c6f6f642d6f7061636974793d222e323235222077696474683d223230302522206865696768743d2232303025222f3e3c2f66696c7465723e3c2f646566733e3c7061746820643d22222066696c6c3d2223464646222f3e3c646566733e3c6c696e6561724772616469656e742069643d2242222078313d2230222079313d2230222078323d22323730222079323d2232373022206772616469656e74556e6974733d227573657253706163654f6e557365223e3c73746f702073746f702d636f6c6f723d2223623033336436222f3e3c73746f70206f66667365743d2231222073746f702d636f6c6f723d2223653039363164222073746f702d6f7061636974793d222e3939222f3e3c2f6c696e6561724772616469656e743e3c2f646566733e3c7465787420783d2233322e352220793d223233312220666f6e742d73697a653d223237222066696c6c3d2223666666222066696c7465723d2275726c282341292220666f6e742d66616d696c793d22506c7573204a616b617274612053616e732c44656a6156752053616e732c4e6f746f20436f6c6f7220456d6f6a692c4170706c6520436f6c6f7220456d6f6a692c73616e732d73657269662220666f6e742d7765696768743d22626f6c64223e",
  "linkReferences": {},
  "deployedLinkReferences": {}
}